{"src/PlightVerifier.sol":{"PlightVerifier":{"abi":[{"inputs":[{"internalType":"bytes","name":"proof","type":"bytes"},{"internalType":"uint256[]","name":"publicSignals","type":"uint256[]"}],"name":"verifyProof","outputs":[{"internalType":"bool","name":"","type":"bool"}],"stateMutability":"view","type":"function"},{"inputs":[{"internalType":"uint256[2]","name":"_pA","type":"uint256[2]"},{"internalType":"uint256[2][2]","name":"_pB","type":"uint256[2][2]"},{"internalType":"uint256[2]","name":"_pC","type":"uint256[2]"},{"internalType":"uint256[6]","name":"_pubSignals","type":"uint256[6]"}],"name":"verifyProof","outputs":[{"internalType":"bool","name":"","type":"bool"}],"stateMutability":"view","type":"function"}],"evm":{"bytecode":{"linkReferences":{},"object":"6080806040523461001657610c18908161001c8239f35b600080fdfe6080604052600436101561001257600080fd5b6000803560e01c9081631e8e1e131461003a575063f398789b1461003557600080fd5b610216565b346100c15760403660031901126100c15760043567ffffffffffffffff918282116100c157366023830112156100c1578160040135908382116100c15736602483850101116100c157602435908482116100c157366023830112156100c15781600401359485116100c1573660248660051b840101116100c1575060248091019201610415565b80fd5b634e487b7160e01b600052604160045260246000fd5b604051906040820182811067ffffffffffffffff8211176100fa57604052565b6100c4565b6040519060c0820182811067ffffffffffffffff8211176100fa57604052565b906101286100da565b91826044918211610153576004905b82821061014357505050565b8135815260209182019101610137565b600080fd5b8060e31215610153576101696100da565b90816101049182116101535760c4905b8282106101865750505090565b8135815260209182019101610179565b9080601f83011215610153576101aa6100da565b80926040810192831161015357905b8282106101c65750505090565b81358152602091820191016101b9565b806101231215610153576101e86100ff565b90816101c491821161015357610104905b8282106102065750505090565b81358152602091820191016101f9565b34610153576101c03660031901126101535736602312156101535761023a3661011f565b36606312156101535761024b6100da565b60c481368211610153576044905b82821061027c5750505061026c36610158565b90610276366101d6565b9261082f565b602060409161028b3685610196565b815201910190610259565b1561029d57565b60405162461bcd60e51b8152602060048201526014602482015273092dcecc2d8d2c840e0e4dedecc40d8cadccee8d60631b6044820152606490fd5b156102e057565b60405162461bcd60e51b815260206004820152601d60248201527f496e76616c6964207075626c6963207369676e616c73206c656e6774680000006044820152606490fd5b61032d6100da565b906040368337565b61033d6100ff565b9060c0368337565b61034d6100da565b9060005b60409081811015610375576020916103676100da565b903682378185015201610351565b5050565b9190826101009103126101535781359160208101359160408201359160608101359160808201359160a08101359160e060c083013592013590565b634e487b7160e01b600052603260045260246000fd5b60001981146103d95760010190565b634e487b7160e01b600052601160045260246000fd5b91908110156103ff5760051b0190565b6103b4565b9060068110156103ff5760051b0190565b9190926104256101008514610296565b60066104328183146102d9565b61043a610325565b91610443610345565b93610492610464610452610325565b9761045b610335565b99810190610379565b9794919590968c9493945260208c01528b51526104828b5160200190565b5260208a01908151525160200190565b528752602087015260005b8381106104ad575050505061082f565b806104bc6104cd9285856103ef565b356104c7828b610404565b526103ca565b61049d565b7f30644e72e131a029b85045b68181585d2833e84879b9709143e1f593f000000111156104fb57565b6000805260206000f35b604080517f145f8975b228da91540616c455102cf69c0e683a9af3be715d34eb1af8ffe15881527f0ab74e079411bdf156eda1b356c7372bc91ae56b3f2db45988a7f867c9a664a160208201528082019384526107cf1991816060816007865a01fa156104fb57600660809260409585519052602085015160608401525a01fa156104fb57565b604080517f056114eb0cb90a007cbb19184436654728ca232ea2fd81e97ec467e074b4f92e81527f15476b567ef2ef7591f32a6fbc8539b651bc83ea338a913f7cda67e70e91cd8b60208201528082019384526107cf1991816060816007865a01fa156104fb57600660809260409585519052602085015160608401525a01fa156104fb57565b604080517f0513b7f94a7cd6d3a04d059488af7590bbb22dcc26b2d44f101158a414ea296281527f2cb8b22e035cb3dd4f7718a27d482377ad0bdf183ddea74c02be1d9b88296b4760208201528082019384526107cf1991816060816007865a01fa156104fb57600660809260409585519052602085015160608401525a01fa156104fb57565b604080517f1dc1ffe7a8638849b4aec0bdf951355929b7025595f4abb988775f3c865b814a81527f26c8e0271b90c4c0ce12b856914f55e3a79aa586e2dd2a6c070af25532ce6e5260208201528082019384526107cf1991816060816007865a01fa156104fb57600660809260409585519052602085015160608401525a01fa156104fb57565b604080517f17a14e9e45e246b40ab245bd234a526c02c0f98da26330583f6077dc960a408081527f1506ecc3c2aa008c9b1808f70108c3688fe148fad1d1ba4d905ae79edf635f8c60208201528082019384526107cf1991816060816007865a01fa156104fb57600660809260409585519052602085015160608401525a01fa156104fb57565b604080517f2e09b7a96090c782817c43525065c724e85b1769235acba4493dc6ad3ec5b36781527f0d9dd7842eded2385f29178aeb1fb731c4a3209a17b077a3c75fa331d1c22e1760208201528082019384526107cf1991816060816007865a01fa156104fb57600660809260409585519052602085015160608401525a01fa156104fb57565b91929060405161038081016040528251610848906104d2565b60208095848280960194855161085d906104d2565b6040820197885161086d906104d2565b60608301805161087c906104d2565b60808401805161088b906104d2565b60a0850191825161089b906104d2565b608089019b8c9a7f2914e15da0fbe53d81e1f18198cd6f354eb7290fb6cb702dbce51750dcfd73138b52898b01977f0dede65eb8786c41ba4569f667e16d18c62eb82568ce36fdce52d5ccd170255d8952516108f7908c610505565b51610902908b61058c565b5161090d908a610613565b51610918908961069a565b516109239088610721565b5161092e90876107a8565b805187528401517f30644e72e131a029b85045b68181585d97816a916871ca8d3c208c16d87cfd479081030660a0860152805160c08601528084015160e08601526040810151610100860152606001516101208501527f2a673b0214c0e7f80f30087d15a1c5763a239d9ebdc24e299965fb524da88b646101408501527f25da87fdcf2cf0d5e5a62dfcb432acbd68d4d343acb856d0dfb30efa9026ca556101608501527f17c610c81cdb902ccf9de9e7439ca65adbcd3ef29ddad4630c527ddf1a28b9006101808501527f02b9a49bb99b157afa97e4825a94a5f36a9b4c38d609f6c09c878b125a5adff16101a08501527f1a6bb75944f5d0d28aaffaf5b97a9ce651613774fb1b622616170d245114f5dd6101c08501527f03bd78cf32b2b2bcfe7c59e93c6b71f0e92551e7c3f25998c99820a2939314366101e08501528351610200850152516102208401527f198e9393920d483a7260bfb731fb5d25f1aa493335a9e71297e485b7aef312c26102408401527f1800deef121f1e76426a00665e5c4479674322d4f75edadd46debd5cd992f6ed6102608401527f090689d0585ff075ec9e99ad690c3395bc4b313370b38ef355acdadcd122975b6102808401527f12c85ea5db8c6deb4aab71808dcb408fe3d1e7690c43d37b4ce6cc0166fa7daa6102a084015280516102c084015201516102e08201527f09a495ff5372cb65728ad7e941d2996dc898922aafa7e0351df247e357fdf984610300808301919091527f20db087e539ca727bc66dd87ae07d4a7ce4bfb901d42d838f098f0693b3ac4176103208301527f2a4071092eef22b121cfa9d6ec5ce3428839cdcfe5f24fa51950939f1812c7116103408301527f16f456f5491611a553207ee9f26739aee390295a262b6ab4f810c50bfbdcb58361036090920191909152816107cf195a01600890fa9051166000526000f3fea2646970667358221220a845e1608489fef0194f4812f563b34922335f2e866afc8118649ea6b730877664736f6c63430008140033","opcodes":"PUSH1 0x80 DUP1 PUSH1 0x40 MSTORE CALLVALUE PUSH2 0x16 JUMPI PUSH2 0xC18 SWAP1 DUP2 PUSH2 0x1C DUP3 CODECOPY RETURN JUMPDEST PUSH1 0x0 DUP1 REVERT INVALID PUSH1 0x80 PUSH1 0x40 MSTORE PUSH1 0x4 CALLDATASIZE LT ISZERO PUSH2 0x12 JUMPI PUSH1 0x0 DUP1 REVERT JUMPDEST PUSH1 0x0 DUP1 CALLDATALOAD PUSH1 0xE0 SHR SWAP1 DUP2 PUSH4 0x1E8E1E13 EQ PUSH2 0x3A JUMPI POP PUSH4 0xF398789B EQ PUSH2 0x35 JUMPI PUSH1 0x0 DUP1 REVERT JUMPDEST PUSH2 0x216 JUMP JUMPDEST CALLVALUE PUSH2 0xC1 JUMPI PUSH1 0x40 CALLDATASIZE PUSH1 0x3 NOT ADD SLT PUSH2 0xC1 JUMPI PUSH1 0x4 CALLDATALOAD PUSH8 0xFFFFFFFFFFFFFFFF SWAP2 DUP3 DUP3 GT PUSH2 0xC1 JUMPI CALLDATASIZE PUSH1 0x23 DUP4 ADD SLT ISZERO PUSH2 0xC1 JUMPI DUP2 PUSH1 0x4 ADD CALLDATALOAD SWAP1 DUP4 DUP3 GT PUSH2 0xC1 JUMPI CALLDATASIZE PUSH1 0x24 DUP4 DUP6 ADD ADD GT PUSH2 0xC1 JUMPI PUSH1 0x24 CALLDATALOAD SWAP1 DUP5 DUP3 GT PUSH2 0xC1 JUMPI CALLDATASIZE PUSH1 0x23 DUP4 ADD SLT ISZERO PUSH2 0xC1 JUMPI DUP2 PUSH1 0x4 ADD CALLDATALOAD SWAP5 DUP6 GT PUSH2 0xC1 JUMPI CALLDATASIZE PUSH1 0x24 DUP7 PUSH1 0x5 SHL DUP5 ADD ADD GT PUSH2 0xC1 JUMPI POP PUSH1 0x24 DUP1 SWAP2 ADD SWAP3 ADD PUSH2 0x415 JUMP JUMPDEST DUP1 REVERT JUMPDEST PUSH4 0x4E487B71 PUSH1 0xE0 SHL PUSH1 0x0 MSTORE PUSH1 0x41 PUSH1 0x4 MSTORE PUSH1 0x24 PUSH1 0x0 REVERT JUMPDEST PUSH1 0x40 MLOAD SWAP1 PUSH1 0x40 DUP3 ADD DUP3 DUP2 LT PUSH8 0xFFFFFFFFFFFFFFFF DUP3 GT OR PUSH2 0xFA JUMPI PUSH1 0x40 MSTORE JUMP JUMPDEST PUSH2 0xC4 JUMP JUMPDEST PUSH1 0x40 MLOAD SWAP1 PUSH1 0xC0 DUP3 ADD DUP3 DUP2 LT PUSH8 0xFFFFFFFFFFFFFFFF DUP3 GT OR PUSH2 0xFA JUMPI PUSH1 0x40 MSTORE JUMP JUMPDEST SWAP1 PUSH2 0x128 PUSH2 0xDA JUMP JUMPDEST SWAP2 DUP3 PUSH1 0x44 SWAP2 DUP3 GT PUSH2 0x153 JUMPI PUSH1 0x4 SWAP1 JUMPDEST DUP3 DUP3 LT PUSH2 0x143 JUMPI POP POP POP JUMP JUMPDEST DUP2 CALLDATALOAD DUP2 MSTORE PUSH1 0x20 SWAP2 DUP3 ADD SWAP2 ADD PUSH2 0x137 JUMP JUMPDEST PUSH1 0x0 DUP1 REVERT JUMPDEST DUP1 PUSH1 0xE3 SLT ISZERO PUSH2 0x153 JUMPI PUSH2 0x169 PUSH2 0xDA JUMP JUMPDEST SWAP1 DUP2 PUSH2 0x104 SWAP2 DUP3 GT PUSH2 0x153 JUMPI PUSH1 0xC4 SWAP1 JUMPDEST DUP3 DUP3 LT PUSH2 0x186 JUMPI POP POP POP SWAP1 JUMP JUMPDEST DUP2 CALLDATALOAD DUP2 MSTORE PUSH1 0x20 SWAP2 DUP3 ADD SWAP2 ADD PUSH2 0x179 JUMP JUMPDEST SWAP1 DUP1 PUSH1 0x1F DUP4 ADD SLT ISZERO PUSH2 0x153 JUMPI PUSH2 0x1AA PUSH2 0xDA JUMP JUMPDEST DUP1 SWAP3 PUSH1 0x40 DUP2 ADD SWAP3 DUP4 GT PUSH2 0x153 JUMPI SWAP1 JUMPDEST DUP3 DUP3 LT PUSH2 0x1C6 JUMPI POP POP POP SWAP1 JUMP JUMPDEST DUP2 CALLDATALOAD DUP2 MSTORE PUSH1 0x20 SWAP2 DUP3 ADD SWAP2 ADD PUSH2 0x1B9 JUMP JUMPDEST DUP1 PUSH2 0x123 SLT ISZERO PUSH2 0x153 JUMPI PUSH2 0x1E8 PUSH2 0xFF JUMP JUMPDEST SWAP1 DUP2 PUSH2 0x1C4 SWAP2 DUP3 GT PUSH2 0x153 JUMPI PUSH2 0x104 SWAP1 JUMPDEST DUP3 DUP3 LT PUSH2 0x206 JUMPI POP POP POP SWAP1 JUMP JUMPDEST DUP2 CALLDATALOAD DUP2 MSTORE PUSH1 0x20 SWAP2 DUP3 ADD SWAP2 ADD PUSH2 0x1F9 JUMP JUMPDEST CALLVALUE PUSH2 0x153 JUMPI PUSH2 0x1C0 CALLDATASIZE PUSH1 0x3 NOT ADD SLT PUSH2 0x153 JUMPI CALLDATASIZE PUSH1 0x23 SLT ISZERO PUSH2 0x153 JUMPI PUSH2 0x23A CALLDATASIZE PUSH2 0x11F JUMP JUMPDEST CALLDATASIZE PUSH1 0x63 SLT ISZERO PUSH2 0x153 JUMPI PUSH2 0x24B PUSH2 0xDA JUMP JUMPDEST PUSH1 0xC4 DUP2 CALLDATASIZE DUP3 GT PUSH2 0x153 JUMPI PUSH1 0x44 SWAP1 JUMPDEST DUP3 DUP3 LT PUSH2 0x27C JUMPI POP POP POP PUSH2 0x26C CALLDATASIZE PUSH2 0x158 JUMP JUMPDEST SWAP1 PUSH2 0x276 CALLDATASIZE PUSH2 0x1D6 JUMP JUMPDEST SWAP3 PUSH2 0x82F JUMP JUMPDEST PUSH1 0x20 PUSH1 0x40 SWAP2 PUSH2 0x28B CALLDATASIZE DUP6 PUSH2 0x196 JUMP JUMPDEST DUP2 MSTORE ADD SWAP2 ADD SWAP1 PUSH2 0x259 JUMP JUMPDEST ISZERO PUSH2 0x29D JUMPI JUMP JUMPDEST PUSH1 0x40 MLOAD PUSH3 0x461BCD PUSH1 0xE5 SHL DUP2 MSTORE PUSH1 0x20 PUSH1 0x4 DUP3 ADD MSTORE PUSH1 0x14 PUSH1 0x24 DUP3 ADD MSTORE PUSH20 0x92DCECC2D8D2C840E0E4DEDECC40D8CADCCEE8D PUSH1 0x63 SHL PUSH1 0x44 DUP3 ADD MSTORE PUSH1 0x64 SWAP1 REVERT JUMPDEST ISZERO PUSH2 0x2E0 JUMPI JUMP JUMPDEST PUSH1 0x40 MLOAD PUSH3 0x461BCD PUSH1 0xE5 SHL DUP2 MSTORE PUSH1 0x20 PUSH1 0x4 DUP3 ADD MSTORE PUSH1 0x1D PUSH1 0x24 DUP3 ADD MSTORE PUSH32 0x496E76616C6964207075626C6963207369676E616C73206C656E677468000000 PUSH1 0x44 DUP3 ADD MSTORE PUSH1 0x64 SWAP1 REVERT JUMPDEST PUSH2 0x32D PUSH2 0xDA JUMP JUMPDEST SWAP1 PUSH1 0x40 CALLDATASIZE DUP4 CALLDATACOPY JUMP JUMPDEST PUSH2 0x33D PUSH2 0xFF JUMP JUMPDEST SWAP1 PUSH1 0xC0 CALLDATASIZE DUP4 CALLDATACOPY JUMP JUMPDEST PUSH2 0x34D PUSH2 0xDA JUMP JUMPDEST SWAP1 PUSH1 0x0 JUMPDEST PUSH1 0x40 SWAP1 DUP2 DUP2 LT ISZERO PUSH2 0x375 JUMPI PUSH1 0x20 SWAP2 PUSH2 0x367 PUSH2 0xDA JUMP JUMPDEST SWAP1 CALLDATASIZE DUP3 CALLDATACOPY DUP2 DUP6 ADD MSTORE ADD PUSH2 0x351 JUMP JUMPDEST POP POP JUMP JUMPDEST SWAP2 SWAP1 DUP3 PUSH2 0x100 SWAP2 SUB SLT PUSH2 0x153 JUMPI DUP2 CALLDATALOAD SWAP2 PUSH1 0x20 DUP2 ADD CALLDATALOAD SWAP2 PUSH1 0x40 DUP3 ADD CALLDATALOAD SWAP2 PUSH1 0x60 DUP2 ADD CALLDATALOAD SWAP2 PUSH1 0x80 DUP3 ADD CALLDATALOAD SWAP2 PUSH1 0xA0 DUP2 ADD CALLDATALOAD SWAP2 PUSH1 0xE0 PUSH1 0xC0 DUP4 ADD CALLDATALOAD SWAP3 ADD CALLDATALOAD SWAP1 JUMP JUMPDEST PUSH4 0x4E487B71 PUSH1 0xE0 SHL PUSH1 0x0 MSTORE PUSH1 0x32 PUSH1 0x4 MSTORE PUSH1 0x24 PUSH1 0x0 REVERT JUMPDEST PUSH1 0x0 NOT DUP2 EQ PUSH2 0x3D9 JUMPI PUSH1 0x1 ADD SWAP1 JUMP JUMPDEST PUSH4 0x4E487B71 PUSH1 0xE0 SHL PUSH1 0x0 MSTORE PUSH1 0x11 PUSH1 0x4 MSTORE PUSH1 0x24 PUSH1 0x0 REVERT JUMPDEST SWAP2 SWAP1 DUP2 LT ISZERO PUSH2 0x3FF JUMPI PUSH1 0x5 SHL ADD SWAP1 JUMP JUMPDEST PUSH2 0x3B4 JUMP JUMPDEST SWAP1 PUSH1 0x6 DUP2 LT ISZERO PUSH2 0x3FF JUMPI PUSH1 0x5 SHL ADD SWAP1 JUMP JUMPDEST SWAP2 SWAP1 SWAP3 PUSH2 0x425 PUSH2 0x100 DUP6 EQ PUSH2 0x296 JUMP JUMPDEST PUSH1 0x6 PUSH2 0x432 DUP2 DUP4 EQ PUSH2 0x2D9 JUMP JUMPDEST PUSH2 0x43A PUSH2 0x325 JUMP JUMPDEST SWAP2 PUSH2 0x443 PUSH2 0x345 JUMP JUMPDEST SWAP4 PUSH2 0x492 PUSH2 0x464 PUSH2 0x452 PUSH2 0x325 JUMP JUMPDEST SWAP8 PUSH2 0x45B PUSH2 0x335 JUMP JUMPDEST SWAP10 DUP2 ADD SWAP1 PUSH2 0x379 JUMP JUMPDEST SWAP8 SWAP5 SWAP2 SWAP6 SWAP1 SWAP7 DUP13 SWAP5 SWAP4 SWAP5 MSTORE PUSH1 0x20 DUP13 ADD MSTORE DUP12 MLOAD MSTORE PUSH2 0x482 DUP12 MLOAD PUSH1 0x20 ADD SWAP1 JUMP JUMPDEST MSTORE PUSH1 0x20 DUP11 ADD SWAP1 DUP2 MLOAD MSTORE MLOAD PUSH1 0x20 ADD SWAP1 JUMP JUMPDEST MSTORE DUP8 MSTORE PUSH1 0x20 DUP8 ADD MSTORE PUSH1 0x0 JUMPDEST DUP4 DUP2 LT PUSH2 0x4AD JUMPI POP POP POP POP PUSH2 0x82F JUMP JUMPDEST DUP1 PUSH2 0x4BC PUSH2 0x4CD SWAP3 DUP6 DUP6 PUSH2 0x3EF JUMP JUMPDEST CALLDATALOAD PUSH2 0x4C7 DUP3 DUP12 PUSH2 0x404 JUMP JUMPDEST MSTORE PUSH2 0x3CA JUMP JUMPDEST PUSH2 0x49D JUMP JUMPDEST PUSH32 0x30644E72E131A029B85045B68181585D2833E84879B9709143E1F593F0000001 GT ISZERO PUSH2 0x4FB JUMPI JUMP JUMPDEST PUSH1 0x0 DUP1 MSTORE PUSH1 0x20 PUSH1 0x0 RETURN JUMPDEST PUSH1 0x40 DUP1 MLOAD PUSH32 0x145F8975B228DA91540616C455102CF69C0E683A9AF3BE715D34EB1AF8FFE158 DUP2 MSTORE PUSH32 0xAB74E079411BDF156EDA1B356C7372BC91AE56B3F2DB45988A7F867C9A664A1 PUSH1 0x20 DUP3 ADD MSTORE DUP1 DUP3 ADD SWAP4 DUP5 MSTORE PUSH2 0x7CF NOT SWAP2 DUP2 PUSH1 0x60 DUP2 PUSH1 0x7 DUP7 GAS ADD STATICCALL ISZERO PUSH2 0x4FB JUMPI PUSH1 0x6 PUSH1 0x80 SWAP3 PUSH1 0x40 SWAP6 DUP6 MLOAD SWAP1 MSTORE PUSH1 0x20 DUP6 ADD MLOAD PUSH1 0x60 DUP5 ADD MSTORE GAS ADD STATICCALL ISZERO PUSH2 0x4FB JUMPI JUMP JUMPDEST PUSH1 0x40 DUP1 MLOAD PUSH32 0x56114EB0CB90A007CBB19184436654728CA232EA2FD81E97EC467E074B4F92E DUP2 MSTORE PUSH32 0x15476B567EF2EF7591F32A6FBC8539B651BC83EA338A913F7CDA67E70E91CD8B PUSH1 0x20 DUP3 ADD MSTORE DUP1 DUP3 ADD SWAP4 DUP5 MSTORE PUSH2 0x7CF NOT SWAP2 DUP2 PUSH1 0x60 DUP2 PUSH1 0x7 DUP7 GAS ADD STATICCALL ISZERO PUSH2 0x4FB JUMPI PUSH1 0x6 PUSH1 0x80 SWAP3 PUSH1 0x40 SWAP6 DUP6 MLOAD SWAP1 MSTORE PUSH1 0x20 DUP6 ADD MLOAD PUSH1 0x60 DUP5 ADD MSTORE GAS ADD STATICCALL ISZERO PUSH2 0x4FB JUMPI JUMP JUMPDEST PUSH1 0x40 DUP1 MLOAD PUSH32 0x513B7F94A7CD6D3A04D059488AF7590BBB22DCC26B2D44F101158A414EA2962 DUP2 MSTORE PUSH32 0x2CB8B22E035CB3DD4F7718A27D482377AD0BDF183DDEA74C02BE1D9B88296B47 PUSH1 0x20 DUP3 ADD MSTORE DUP1 DUP3 ADD SWAP4 DUP5 MSTORE PUSH2 0x7CF NOT SWAP2 DUP2 PUSH1 0x60 DUP2 PUSH1 0x7 DUP7 GAS ADD STATICCALL ISZERO PUSH2 0x4FB JUMPI PUSH1 0x6 PUSH1 0x80 SWAP3 PUSH1 0x40 SWAP6 DUP6 MLOAD SWAP1 MSTORE PUSH1 0x20 DUP6 ADD MLOAD PUSH1 0x60 DUP5 ADD MSTORE GAS ADD STATICCALL ISZERO PUSH2 0x4FB JUMPI JUMP JUMPDEST PUSH1 0x40 DUP1 MLOAD PUSH32 0x1DC1FFE7A8638849B4AEC0BDF951355929B7025595F4ABB988775F3C865B814A DUP2 MSTORE PUSH32 0x26C8E0271B90C4C0CE12B856914F55E3A79AA586E2DD2A6C070AF25532CE6E52 PUSH1 0x20 DUP3 ADD MSTORE DUP1 DUP3 ADD SWAP4 DUP5 MSTORE PUSH2 0x7CF NOT SWAP2 DUP2 PUSH1 0x60 DUP2 PUSH1 0x7 DUP7 GAS ADD STATICCALL ISZERO PUSH2 0x4FB JUMPI PUSH1 0x6 PUSH1 0x80 SWAP3 PUSH1 0x40 SWAP6 DUP6 MLOAD SWAP1 MSTORE PUSH1 0x20 DUP6 ADD MLOAD PUSH1 0x60 DUP5 ADD MSTORE GAS ADD STATICCALL ISZERO PUSH2 0x4FB JUMPI JUMP JUMPDEST PUSH1 0x40 DUP1 MLOAD PUSH32 0x17A14E9E45E246B40AB245BD234A526C02C0F98DA26330583F6077DC960A4080 DUP2 MSTORE PUSH32 0x1506ECC3C2AA008C9B1808F70108C3688FE148FAD1D1BA4D905AE79EDF635F8C PUSH1 0x20 DUP3 ADD MSTORE DUP1 DUP3 ADD SWAP4 DUP5 MSTORE PUSH2 0x7CF NOT SWAP2 DUP2 PUSH1 0x60 DUP2 PUSH1 0x7 DUP7 GAS ADD STATICCALL ISZERO PUSH2 0x4FB JUMPI PUSH1 0x6 PUSH1 0x80 SWAP3 PUSH1 0x40 SWAP6 DUP6 MLOAD SWAP1 MSTORE PUSH1 0x20 DUP6 ADD MLOAD PUSH1 0x60 DUP5 ADD MSTORE GAS ADD STATICCALL ISZERO PUSH2 0x4FB JUMPI JUMP JUMPDEST PUSH1 0x40 DUP1 MLOAD PUSH32 0x2E09B7A96090C782817C43525065C724E85B1769235ACBA4493DC6AD3EC5B367 DUP2 MSTORE PUSH32 0xD9DD7842EDED2385F29178AEB1FB731C4A3209A17B077A3C75FA331D1C22E17 PUSH1 0x20 DUP3 ADD MSTORE DUP1 DUP3 ADD SWAP4 DUP5 MSTORE PUSH2 0x7CF NOT SWAP2 DUP2 PUSH1 0x60 DUP2 PUSH1 0x7 DUP7 GAS ADD STATICCALL ISZERO PUSH2 0x4FB JUMPI PUSH1 0x6 PUSH1 0x80 SWAP3 PUSH1 0x40 SWAP6 DUP6 MLOAD SWAP1 MSTORE PUSH1 0x20 DUP6 ADD MLOAD PUSH1 0x60 DUP5 ADD MSTORE GAS ADD STATICCALL ISZERO PUSH2 0x4FB JUMPI JUMP JUMPDEST SWAP2 SWAP3 SWAP1 PUSH1 0x40 MLOAD PUSH2 0x380 DUP2 ADD PUSH1 0x40 MSTORE DUP3 MLOAD PUSH2 0x848 SWAP1 PUSH2 0x4D2 JUMP JUMPDEST PUSH1 0x20 DUP1 SWAP6 DUP5 DUP3 DUP1 SWAP7 ADD SWAP5 DUP6 MLOAD PUSH2 0x85D SWAP1 PUSH2 0x4D2 JUMP JUMPDEST PUSH1 0x40 DUP3 ADD SWAP8 DUP9 MLOAD PUSH2 0x86D SWAP1 PUSH2 0x4D2 JUMP JUMPDEST PUSH1 0x60 DUP4 ADD DUP1 MLOAD PUSH2 0x87C SWAP1 PUSH2 0x4D2 JUMP JUMPDEST PUSH1 0x80 DUP5 ADD DUP1 MLOAD PUSH2 0x88B SWAP1 PUSH2 0x4D2 JUMP JUMPDEST PUSH1 0xA0 DUP6 ADD SWAP2 DUP3 MLOAD PUSH2 0x89B SWAP1 PUSH2 0x4D2 JUMP JUMPDEST PUSH1 0x80 DUP10 ADD SWAP12 DUP13 SWAP11 PUSH32 0x2914E15DA0FBE53D81E1F18198CD6F354EB7290FB6CB702DBCE51750DCFD7313 DUP12 MSTORE DUP10 DUP12 ADD SWAP8 PUSH32 0xDEDE65EB8786C41BA4569F667E16D18C62EB82568CE36FDCE52D5CCD170255D DUP10 MSTORE MLOAD PUSH2 0x8F7 SWAP1 DUP13 PUSH2 0x505 JUMP JUMPDEST MLOAD PUSH2 0x902 SWAP1 DUP12 PUSH2 0x58C JUMP JUMPDEST MLOAD PUSH2 0x90D SWAP1 DUP11 PUSH2 0x613 JUMP JUMPDEST MLOAD PUSH2 0x918 SWAP1 DUP10 PUSH2 0x69A JUMP JUMPDEST MLOAD PUSH2 0x923 SWAP1 DUP9 PUSH2 0x721 JUMP JUMPDEST MLOAD PUSH2 0x92E SWAP1 DUP8 PUSH2 0x7A8 JUMP JUMPDEST DUP1 MLOAD DUP8 MSTORE DUP5 ADD MLOAD PUSH32 0x30644E72E131A029B85045B68181585D97816A916871CA8D3C208C16D87CFD47 SWAP1 DUP2 SUB MOD PUSH1 0xA0 DUP7 ADD MSTORE DUP1 MLOAD PUSH1 0xC0 DUP7 ADD MSTORE DUP1 DUP5 ADD MLOAD PUSH1 0xE0 DUP7 ADD MSTORE PUSH1 0x40 DUP2 ADD MLOAD PUSH2 0x100 DUP7 ADD MSTORE PUSH1 0x60 ADD MLOAD PUSH2 0x120 DUP6 ADD MSTORE PUSH32 0x2A673B0214C0E7F80F30087D15A1C5763A239D9EBDC24E299965FB524DA88B64 PUSH2 0x140 DUP6 ADD MSTORE PUSH32 0x25DA87FDCF2CF0D5E5A62DFCB432ACBD68D4D343ACB856D0DFB30EFA9026CA55 PUSH2 0x160 DUP6 ADD MSTORE PUSH32 0x17C610C81CDB902CCF9DE9E7439CA65ADBCD3EF29DDAD4630C527DDF1A28B900 PUSH2 0x180 DUP6 ADD MSTORE PUSH32 0x2B9A49BB99B157AFA97E4825A94A5F36A9B4C38D609F6C09C878B125A5ADFF1 PUSH2 0x1A0 DUP6 ADD MSTORE PUSH32 0x1A6BB75944F5D0D28AAFFAF5B97A9CE651613774FB1B622616170D245114F5DD PUSH2 0x1C0 DUP6 ADD MSTORE PUSH32 0x3BD78CF32B2B2BCFE7C59E93C6B71F0E92551E7C3F25998C99820A293931436 PUSH2 0x1E0 DUP6 ADD MSTORE DUP4 MLOAD PUSH2 0x200 DUP6 ADD MSTORE MLOAD PUSH2 0x220 DUP5 ADD MSTORE PUSH32 0x198E9393920D483A7260BFB731FB5D25F1AA493335A9E71297E485B7AEF312C2 PUSH2 0x240 DUP5 ADD MSTORE PUSH32 0x1800DEEF121F1E76426A00665E5C4479674322D4F75EDADD46DEBD5CD992F6ED PUSH2 0x260 DUP5 ADD MSTORE PUSH32 0x90689D0585FF075EC9E99AD690C3395BC4B313370B38EF355ACDADCD122975B PUSH2 0x280 DUP5 ADD MSTORE PUSH32 0x12C85EA5DB8C6DEB4AAB71808DCB408FE3D1E7690C43D37B4CE6CC0166FA7DAA PUSH2 0x2A0 DUP5 ADD MSTORE DUP1 MLOAD PUSH2 0x2C0 DUP5 ADD MSTORE ADD MLOAD PUSH2 0x2E0 DUP3 ADD MSTORE PUSH32 0x9A495FF5372CB65728AD7E941D2996DC898922AAFA7E0351DF247E357FDF984 PUSH2 0x300 DUP1 DUP4 ADD SWAP2 SWAP1 SWAP2 MSTORE PUSH32 0x20DB087E539CA727BC66DD87AE07D4A7CE4BFB901D42D838F098F0693B3AC417 PUSH2 0x320 DUP4 ADD MSTORE PUSH32 0x2A4071092EEF22B121CFA9D6EC5CE3428839CDCFE5F24FA51950939F1812C711 PUSH2 0x340 DUP4 ADD MSTORE PUSH32 0x16F456F5491611A553207EE9F26739AEE390295A262B6AB4F810C50BFBDCB583 PUSH2 0x360 SWAP1 SWAP3 ADD SWAP2 SWAP1 SWAP2 MSTORE DUP2 PUSH2 0x7CF NOT GAS ADD PUSH1 0x8 SWAP1 STATICCALL SWAP1 MLOAD AND PUSH1 0x0 MSTORE PUSH1 0x0 RETURN INVALID LOG2 PUSH5 0x6970667358 0x22 SLT KECCAK256 0xA8 GASLIMIT 0xE1 PUSH1 0x84 DUP10 INVALID CREATE NOT 0x4F BASEFEE SLT CREATE2 PUSH4 0xB3492233 PUSH0 0x2E DUP7 PUSH11 0xFC8118649EA6B730877664 PUSH20 0x6F6C634300081400330000000000000000000000 "},"methodIdentifiers":{"verifyProof(bytes,uint256[])":"1e8e1e13","verifyProof(uint256[2],uint256[2][2],uint256[2],uint256[6])":"f398789b"}}}}}