{"src/SampleProtocol.sol":{"SampleProtocol":{"abi":[{"inputs":[{"internalType":"address","name":"_policy","type":"address"}],"stateMutability":"nonpayable","type":"constructor"},{"inputs":[],"name":"HealthCheckFailed","type":"error"},{"anonymous":false,"inputs":[{"indexed":true,"internalType":"address","name":"user","type":"address"},{"indexed":false,"internalType":"bool","name":"healthy","type":"bool"}],"name":"HealthChecked","type":"event"},{"inputs":[{"internalType":"bytes","name":"proof","type":"bytes"},{"internalType":"uint256[]","name":"publicInputs","type":"uint256[]"}],"name":"checkHealth","outputs":[],"stateMutability":"nonpayable","type":"function"},{"inputs":[],"name":"healthPolicy","outputs":[{"internalType":"contract IHealthPolicy","name":"","type":"address"}],"stateMutability":"view","type":"function"}],"evm":{"bytecode":{"linkReferences":{},"object":"60a0346100be57601f61037938819003918201601f19168301916001600160401b038311848410176100c3578084926020946040528339810103126100be57516001600160a01b038116908190036100be5780156100795760805260405161029f90816100da823960805181818161011c01526102360152f35b60405162461bcd60e51b815260206004820152601660248201527f496e76616c696420706f6c6963792061646472657373000000000000000000006044820152606490fd5b600080fd5b634e487b7160e01b600052604160045260246000fdfe6080604081815260048036101561001557600080fd5b600092833560e01c908163666dfd8c14610222575063744eb3811461003957600080fd5b3461021e578160031936011261021e5767ffffffffffffffff813581811161021a573660238201121561021a5780830135828111610216576024923684838501011161021257833581811161020e573660238201121561020e578086013582811161020a578060051b90368783850101116102065784601f95888b519863274771b760e11b8a52338c8b01526060828b01528260648b01520160848901378a6084828901015285199586910116860190608087830301604488015280608483015260018060fb1b031061020657858260a49282948a6020970185830137010301817f00000000000000000000000000000000000000000000000000000000000000006001600160a01b03165afa9384156101fc57879461019a575b505050501561018c575051600181527f59f72b88775ec111625b740c2b38d8f6e163e79ce4fc1896f22c8337129b051e60203392a280f35b905163c196dcf360e01b8152fd5b90919293506020923d84116101f4575b601f8401168401918211848310176101e3575060209183918652810103126101df575180151581036101df5738808080610154565b8380fd5b634e487b7160e01b87526041855286fd5b3d93506101aa565b86513d89823e3d90fd5b8980fd5b8880fd5b8780fd5b8680fd5b8580fd5b8480fd5b8280fd5b8490346102655781600319360112610265577f00000000000000000000000000000000000000000000000000000000000000006001600160a01b03168152602090f35b5080fdfea26469706673582212208185839a68108de5cbb064eac7d44c6f3060c38573ac867bf8ec6fa14049016d64736f6c63430008140033","opcodes":"PUSH1 0xA0 CALLVALUE PUSH2 0xBE JUMPI PUSH1 0x1F PUSH2 0x379 CODESIZE DUP2 SWAP1 SUB SWAP2 DUP3 ADD PUSH1 0x1F NOT AND DUP4 ADD SWAP2 PUSH1 0x1 PUSH1 0x1 PUSH1 0x40 SHL SUB DUP4 GT DUP5 DUP5 LT OR PUSH2 0xC3 JUMPI DUP1 DUP5 SWAP3 PUSH1 0x20 SWAP5 PUSH1 0x40 MSTORE DUP4 CODECOPY DUP2 ADD SUB SLT PUSH2 0xBE JUMPI MLOAD PUSH1 0x1 PUSH1 0x1 PUSH1 0xA0 SHL SUB DUP2 AND SWAP1 DUP2 SWAP1 SUB PUSH2 0xBE JUMPI DUP1 ISZERO PUSH2 0x79 JUMPI PUSH1 0x80 MSTORE PUSH1 0x40 MLOAD PUSH2 0x29F SWAP1 DUP2 PUSH2 0xDA DUP3 CODECOPY PUSH1 0x80 MLOAD DUP2 DUP2 DUP2 PUSH2 0x11C ADD MSTORE PUSH2 0x236 ADD MSTORE RETURN JUMPDEST PUSH1 0x40 MLOAD PUSH3 0x461BCD PUSH1 0xE5 SHL DUP2 MSTORE PUSH1 0x20 PUSH1 0x4 DUP3 ADD MSTORE PUSH1 0x16 PUSH1 0x24 DUP3 ADD MSTORE PUSH32 0x496E76616C696420706F6C696379206164647265737300000000000000000000 PUSH1 0x44 DUP3 ADD MSTORE PUSH1 0x64 SWAP1 REVERT JUMPDEST PUSH1 0x0 DUP1 REVERT JUMPDEST PUSH4 0x4E487B71 PUSH1 0xE0 SHL PUSH1 0x0 MSTORE PUSH1 0x41 PUSH1 0x4 MSTORE PUSH1 0x24 PUSH1 0x0 REVERT INVALID PUSH1 0x80 PUSH1 0x40 DUP2 DUP2 MSTORE PUSH1 0x4 DUP1 CALLDATASIZE LT ISZERO PUSH2 0x15 JUMPI PUSH1 0x0 DUP1 REVERT JUMPDEST PUSH1 0x0 SWAP3 DUP4 CALLDATALOAD PUSH1 0xE0 SHR SWAP1 DUP2 PUSH4 0x666DFD8C EQ PUSH2 0x222 JUMPI POP PUSH4 0x744EB381 EQ PUSH2 0x39 JUMPI PUSH1 0x0 DUP1 REVERT JUMPDEST CALLVALUE PUSH2 0x21E JUMPI DUP2 PUSH1 0x3 NOT CALLDATASIZE ADD SLT PUSH2 0x21E JUMPI PUSH8 0xFFFFFFFFFFFFFFFF DUP2 CALLDATALOAD DUP2 DUP2 GT PUSH2 0x21A JUMPI CALLDATASIZE PUSH1 0x23 DUP3 ADD SLT ISZERO PUSH2 0x21A JUMPI DUP1 DUP4 ADD CALLDATALOAD DUP3 DUP2 GT PUSH2 0x216 JUMPI PUSH1 0x24 SWAP3 CALLDATASIZE DUP5 DUP4 DUP6 ADD ADD GT PUSH2 0x212 JUMPI DUP4 CALLDATALOAD DUP2 DUP2 GT PUSH2 0x20E JUMPI CALLDATASIZE PUSH1 0x23 DUP3 ADD SLT ISZERO PUSH2 0x20E JUMPI DUP1 DUP7 ADD CALLDATALOAD DUP3 DUP2 GT PUSH2 0x20A JUMPI DUP1 PUSH1 0x5 SHL SWAP1 CALLDATASIZE DUP8 DUP4 DUP6 ADD ADD GT PUSH2 0x206 JUMPI DUP5 PUSH1 0x1F SWAP6 DUP9 DUP12 MLOAD SWAP9 PUSH4 0x274771B7 PUSH1 0xE1 SHL DUP11 MSTORE CALLER DUP13 DUP12 ADD MSTORE PUSH1 0x60 DUP3 DUP12 ADD MSTORE DUP3 PUSH1 0x64 DUP12 ADD MSTORE ADD PUSH1 0x84 DUP10 ADD CALLDATACOPY DUP11 PUSH1 0x84 DUP3 DUP10 ADD ADD MSTORE DUP6 NOT SWAP6 DUP7 SWAP2 ADD AND DUP7 ADD SWAP1 PUSH1 0x80 DUP8 DUP4 SUB ADD PUSH1 0x44 DUP9 ADD MSTORE DUP1 PUSH1 0x84 DUP4 ADD MSTORE PUSH1 0x1 DUP1 PUSH1 0xFB SHL SUB LT PUSH2 0x206 JUMPI DUP6 DUP3 PUSH1 0xA4 SWAP3 DUP3 SWAP5 DUP11 PUSH1 0x20 SWAP8 ADD DUP6 DUP4 ADD CALLDATACOPY ADD SUB ADD DUP2 PUSH32 0x0 PUSH1 0x1 PUSH1 0x1 PUSH1 0xA0 SHL SUB AND GAS STATICCALL SWAP4 DUP5 ISZERO PUSH2 0x1FC JUMPI DUP8 SWAP5 PUSH2 0x19A JUMPI JUMPDEST POP POP POP POP ISZERO PUSH2 0x18C JUMPI POP MLOAD PUSH1 0x1 DUP2 MSTORE PUSH32 0x59F72B88775EC111625B740C2B38D8F6E163E79CE4FC1896F22C8337129B051E PUSH1 0x20 CALLER SWAP3 LOG2 DUP1 RETURN JUMPDEST SWAP1 MLOAD PUSH4 0xC196DCF3 PUSH1 0xE0 SHL DUP2 MSTORE REVERT JUMPDEST SWAP1 SWAP2 SWAP3 SWAP4 POP PUSH1 0x20 SWAP3 RETURNDATASIZE DUP5 GT PUSH2 0x1F4 JUMPI JUMPDEST PUSH1 0x1F DUP5 ADD AND DUP5 ADD SWAP2 DUP3 GT DUP5 DUP4 LT OR PUSH2 0x1E3 JUMPI POP PUSH1 0x20 SWAP2 DUP4 SWAP2 DUP7 MSTORE DUP2 ADD SUB SLT PUSH2 0x1DF JUMPI MLOAD DUP1 ISZERO ISZERO DUP2 SUB PUSH2 0x1DF JUMPI CODESIZE DUP1 DUP1 DUP1 PUSH2 0x154 JUMP JUMPDEST DUP4 DUP1 REVERT JUMPDEST PUSH4 0x4E487B71 PUSH1 0xE0 SHL DUP8 MSTORE PUSH1 0x41 DUP6 MSTORE DUP7 REVERT JUMPDEST RETURNDATASIZE SWAP4 POP PUSH2 0x1AA JUMP JUMPDEST DUP7 MLOAD RETURNDATASIZE DUP10 DUP3 RETURNDATACOPY RETURNDATASIZE SWAP1 REVERT JUMPDEST DUP10 DUP1 REVERT JUMPDEST DUP9 DUP1 REVERT JUMPDEST DUP8 DUP1 REVERT JUMPDEST DUP7 DUP1 REVERT JUMPDEST DUP6 DUP1 REVERT JUMPDEST DUP5 DUP1 REVERT JUMPDEST DUP3 DUP1 REVERT JUMPDEST DUP5 SWAP1 CALLVALUE PUSH2 0x265 JUMPI DUP2 PUSH1 0x3 NOT CALLDATASIZE ADD SLT PUSH2 0x265 JUMPI PUSH32 0x0 PUSH1 0x1 PUSH1 0x1 PUSH1 0xA0 SHL SUB AND DUP2 MSTORE PUSH1 0x20 SWAP1 RETURN JUMPDEST POP DUP1 REVERT INVALID LOG2 PUSH5 0x6970667358 0x22 SLT KECCAK256 DUP2 DUP6 DUP4 SWAP11 PUSH9 0x108DE5CBB064EAC7D4 0x4C PUSH16 0x3060C38573AC867BF8EC6FA14049016D PUSH5 0x736F6C6343 STOP ADDMOD EQ STOP CALLER "},"methodIdentifiers":{"checkHealth(bytes,uint256[])":"744eb381","healthPolicy()":"666dfd8c"}}}}}