{"src/Verifier.sol":{"Groth16Verifier":{"abi":[{"inputs":[{"internalType":"uint256[2]","name":"_pA","type":"uint256[2]"},{"internalType":"uint256[2][2]","name":"_pB","type":"uint256[2][2]"},{"internalType":"uint256[2]","name":"_pC","type":"uint256[2]"},{"internalType":"uint256[6]","name":"_pubSignals","type":"uint256[6]"}],"name":"verifyProof","outputs":[{"internalType":"bool","name":"","type":"bool"}],"stateMutability":"view","type":"function"}],"evm":{"bytecode":{"linkReferences":{},"object":"6080806040523461001657610937908161001c8239f35b600080fdfe604060808152600436101561001357600080fd5b6000803560e01c63f398789b1461002957600080fd5b346100a2576101c03660031901126100a257610044366100e4565b9136606312156100a5576100566100bf565b918260c4913683116100a257506044905b82821061008957858561007936610126565b90610083366101a4565b92610556565b602084916100973685610164565b815201910190610067565b80fd5b5080fd5b634e487b7160e01b600052604160045260246000fd5b604051906040820182811067ffffffffffffffff8211176100df57604052565b6100a9565b8060231215610121576100f56100bf565b90816044918211610121576004905b8282106101115750505090565b8135815260209182019101610104565b600080fd5b8060e31215610121576101376100bf565b90816101049182116101215760c4905b8282106101545750505090565b8135815260209182019101610147565b9080601f83011215610121576101786100bf565b80926040810192831161012157905b8282106101945750505090565b8135815260209182019101610187565b806101231215610121576040519060c0820182811067ffffffffffffffff8211176100df57604052816101c491821161012157610104905b8282106101e95750505090565b81358152602091820191016101dc565b7f30644e72e131a029b85045b68181585d2833e84879b9709143e1f593f0000001111561022257565b6000805260206000f35b604080517f2a1df178782a0ba7f1d3c0968f8bca3fff4c9c308e082b824d12288887c7376981527f09b4e55ef42d1650bcc217d9b3ea6c61564daaba8fb745ffa158234996ff7dbe60208201528082019384526107cf1991816060816007865a01fa1561022257600660809260409585519052602085015160608401525a01fa1561022257565b604080517f2b2d445425da8a00eff117d35f7f7e9795c25ab24f2f5531761d3bb041a6429381527f2044a9180b7d9e43a4f25b8473c4abeb3a3b00c6176ed24fa4f31ffdf5c968fe60208201528082019384526107cf1991816060816007865a01fa1561022257600660809260409585519052602085015160608401525a01fa1561022257565b604080517f29bb1c0135e8df9f7b1e621bb670d60c5214be87a589236ad98042b32e03585181527f1506018c2330ea5d18153010d028e2420e8b12a9834798181ededc522e3116cc60208201528082019384526107cf1991816060816007865a01fa1561022257600660809260409585519052602085015160608401525a01fa1561022257565b604080517f289dfeba049c2ef5ea238401cc9a62c4792ce32e4381e93d570faf24cdde710b81527f1d0f80725e9670239152273b0d0f40e4fdda87874f5dedc0e756d4f64aa7fd9160208201528082019384526107cf1991816060816007865a01fa1561022257600660809260409585519052602085015160608401525a01fa1561022257565b604080517f1e26f06d7f69271bcd2823dbd200ceea73d17ed2e4599737e264aaabaf493d3581527f1918a7a8a340a11b5a15b0a980e986646bb8668fa34054dca1d9f7785c6a8dcb60208201528082019384526107cf1991816060816007865a01fa1561022257600660809260409585519052602085015160608401525a01fa1561022257565b604080517f0109bf550188ce05b3bf44f709eec8f89a5ba06804648a5ed2053f1e2270ea0981527f0669b11e50b968f1a62f0314e20fbb93bf48177b74ffb0fa0b3e1b1992f55e3160208201528082019384526107cf1991816060816007865a01fa1561022257600660809260409585519052602085015160608401525a01fa1561022257565b9291926040516103808101604052833592610570846101f9565b602095869485928388013595610585876101f9565b6040890135986105948a6101f9565b6060810135906105a3826101f9565b6080810135906105b2826101f9565b60a00135916105c0836101f9565b608089019b8c9a7f2a2cc8a9a80951007ed48e6b5a779048ef55b99dc9287ad317061c4b8d6b0d4e8b52898b01977f23485bfef6bdd534459bf978b2ee80547c338246f9d6605f8a5a36b057ab5c37895261061b908c61022c565b610625908b6102b3565b61062f908a61033a565b61063990896103c1565b6106439088610448565b61064d90876104cf565b803587527f30644e72e131a029b85045b68181585d97816a916871ca8d3c208c16d87cfd479085013581030660a0860152803560c08601528084013560e08601526040810135610100860152606001356101208501527f2a673b0214c0e7f80f30087d15a1c5763a239d9ebdc24e299965fb524da88b646101408501527f25da87fdcf2cf0d5e5a62dfcb432acbd68d4d343acb856d0dfb30efa9026ca556101608501527f17c610c81cdb902ccf9de9e7439ca65adbcd3ef29ddad4630c527ddf1a28b9006101808501527f02b9a49bb99b157afa97e4825a94a5f36a9b4c38d609f6c09c878b125a5adff16101a08501527f1a6bb75944f5d0d28aaffaf5b97a9ce651613774fb1b622616170d245114f5dd6101c08501527f03bd78cf32b2b2bcfe7c59e93c6b71f0e92551e7c3f25998c99820a2939314366101e08501528351610200850152516102208401527f198e9393920d483a7260bfb731fb5d25f1aa493335a9e71297e485b7aef312c26102408401527f1800deef121f1e76426a00665e5c4479674322d4f75edadd46debd5cd992f6ed6102608401527f090689d0585ff075ec9e99ad690c3395bc4b313370b38ef355acdadcd122975b6102808401527f12c85ea5db8c6deb4aab71808dcb408fe3d1e7690c43d37b4ce6cc0166fa7daa6102a084015280356102c084015201356102e08201527f1e9fea48cfde811cbf617cebbd40b833dde76e45782689a28c43290d9ec15486610300808301919091527f0e21c960aabfefca60c54f5fe7ed7647be7fe2e91eccb0d4765ea5f7597aa1786103208301527f0e158d1d8ca264d3857917917da2ba26c81fbd07e171f66e497baaef15b2f9f06103408301527f111d1db71b03617ebe683168dc3cdd307af872dcee6a40cdb2f0fb80f17c06d361036090920191909152816107cf195a01600890fa9051166000526000f3fea2646970667358221220108a54c8ad188a246a81cad7736b42f36b5bcf5d622176879bdf0cd9c70edbe164736f6c63430008140033","opcodes":"PUSH1 0x80 DUP1 PUSH1 0x40 MSTORE CALLVALUE PUSH2 0x16 JUMPI PUSH2 0x937 SWAP1 DUP2 PUSH2 0x1C DUP3 CODECOPY RETURN JUMPDEST PUSH1 0x0 DUP1 REVERT INVALID PUSH1 0x40 PUSH1 0x80 DUP2 MSTORE PUSH1 0x4 CALLDATASIZE LT ISZERO PUSH2 0x13 JUMPI PUSH1 0x0 DUP1 REVERT JUMPDEST PUSH1 0x0 DUP1 CALLDATALOAD PUSH1 0xE0 SHR PUSH4 0xF398789B EQ PUSH2 0x29 JUMPI PUSH1 0x0 DUP1 REVERT JUMPDEST CALLVALUE PUSH2 0xA2 JUMPI PUSH2 0x1C0 CALLDATASIZE PUSH1 0x3 NOT ADD SLT PUSH2 0xA2 JUMPI PUSH2 0x44 CALLDATASIZE PUSH2 0xE4 JUMP JUMPDEST SWAP2 CALLDATASIZE PUSH1 0x63 SLT ISZERO PUSH2 0xA5 JUMPI PUSH2 0x56 PUSH2 0xBF JUMP JUMPDEST SWAP2 DUP3 PUSH1 0xC4 SWAP2 CALLDATASIZE DUP4 GT PUSH2 0xA2 JUMPI POP PUSH1 0x44 SWAP1 JUMPDEST DUP3 DUP3 LT PUSH2 0x89 JUMPI DUP6 DUP6 PUSH2 0x79 CALLDATASIZE PUSH2 0x126 JUMP JUMPDEST SWAP1 PUSH2 0x83 CALLDATASIZE PUSH2 0x1A4 JUMP JUMPDEST SWAP3 PUSH2 0x556 JUMP JUMPDEST PUSH1 0x20 DUP5 SWAP2 PUSH2 0x97 CALLDATASIZE DUP6 PUSH2 0x164 JUMP JUMPDEST DUP2 MSTORE ADD SWAP2 ADD SWAP1 PUSH2 0x67 JUMP JUMPDEST DUP1 REVERT JUMPDEST POP DUP1 REVERT JUMPDEST PUSH4 0x4E487B71 PUSH1 0xE0 SHL PUSH1 0x0 MSTORE PUSH1 0x41 PUSH1 0x4 MSTORE PUSH1 0x24 PUSH1 0x0 REVERT JUMPDEST PUSH1 0x40 MLOAD SWAP1 PUSH1 0x40 DUP3 ADD DUP3 DUP2 LT PUSH8 0xFFFFFFFFFFFFFFFF DUP3 GT OR PUSH2 0xDF JUMPI PUSH1 0x40 MSTORE JUMP JUMPDEST PUSH2 0xA9 JUMP JUMPDEST DUP1 PUSH1 0x23 SLT ISZERO PUSH2 0x121 JUMPI PUSH2 0xF5 PUSH2 0xBF JUMP JUMPDEST SWAP1 DUP2 PUSH1 0x44 SWAP2 DUP3 GT PUSH2 0x121 JUMPI PUSH1 0x4 SWAP1 JUMPDEST DUP3 DUP3 LT PUSH2 0x111 JUMPI POP POP POP SWAP1 JUMP JUMPDEST DUP2 CALLDATALOAD DUP2 MSTORE PUSH1 0x20 SWAP2 DUP3 ADD SWAP2 ADD PUSH2 0x104 JUMP JUMPDEST PUSH1 0x0 DUP1 REVERT JUMPDEST DUP1 PUSH1 0xE3 SLT ISZERO PUSH2 0x121 JUMPI PUSH2 0x137 PUSH2 0xBF JUMP JUMPDEST SWAP1 DUP2 PUSH2 0x104 SWAP2 DUP3 GT PUSH2 0x121 JUMPI PUSH1 0xC4 SWAP1 JUMPDEST DUP3 DUP3 LT PUSH2 0x154 JUMPI POP POP POP SWAP1 JUMP JUMPDEST DUP2 CALLDATALOAD DUP2 MSTORE PUSH1 0x20 SWAP2 DUP3 ADD SWAP2 ADD PUSH2 0x147 JUMP JUMPDEST SWAP1 DUP1 PUSH1 0x1F DUP4 ADD SLT ISZERO PUSH2 0x121 JUMPI PUSH2 0x178 PUSH2 0xBF JUMP JUMPDEST DUP1 SWAP3 PUSH1 0x40 DUP2 ADD SWAP3 DUP4 GT PUSH2 0x121 JUMPI SWAP1 JUMPDEST DUP3 DUP3 LT PUSH2 0x194 JUMPI POP POP POP SWAP1 JUMP JUMPDEST DUP2 CALLDATALOAD DUP2 MSTORE PUSH1 0x20 SWAP2 DUP3 ADD SWAP2 ADD PUSH2 0x187 JUMP JUMPDEST DUP1 PUSH2 0x123 SLT ISZERO PUSH2 0x121 JUMPI PUSH1 0x40 MLOAD SWAP1 PUSH1 0xC0 DUP3 ADD DUP3 DUP2 LT PUSH8 0xFFFFFFFFFFFFFFFF DUP3 GT OR PUSH2 0xDF JUMPI PUSH1 0x40 MSTORE DUP2 PUSH2 0x1C4 SWAP2 DUP3 GT PUSH2 0x121 JUMPI PUSH2 0x104 SWAP1 JUMPDEST DUP3 DUP3 LT PUSH2 0x1E9 JUMPI POP POP POP SWAP1 JUMP JUMPDEST DUP2 CALLDATALOAD DUP2 MSTORE PUSH1 0x20 SWAP2 DUP3 ADD SWAP2 ADD PUSH2 0x1DC JUMP JUMPDEST PUSH32 0x30644E72E131A029B85045B68181585D2833E84879B9709143E1F593F0000001 GT ISZERO PUSH2 0x222 JUMPI JUMP JUMPDEST PUSH1 0x0 DUP1 MSTORE PUSH1 0x20 PUSH1 0x0 RETURN JUMPDEST PUSH1 0x40 DUP1 MLOAD PUSH32 0x2A1DF178782A0BA7F1D3C0968F8BCA3FFF4C9C308E082B824D12288887C73769 DUP2 MSTORE PUSH32 0x9B4E55EF42D1650BCC217D9B3EA6C61564DAABA8FB745FFA158234996FF7DBE PUSH1 0x20 DUP3 ADD MSTORE DUP1 DUP3 ADD SWAP4 DUP5 MSTORE PUSH2 0x7CF NOT SWAP2 DUP2 PUSH1 0x60 DUP2 PUSH1 0x7 DUP7 GAS ADD STATICCALL ISZERO PUSH2 0x222 JUMPI PUSH1 0x6 PUSH1 0x80 SWAP3 PUSH1 0x40 SWAP6 DUP6 MLOAD SWAP1 MSTORE PUSH1 0x20 DUP6 ADD MLOAD PUSH1 0x60 DUP5 ADD MSTORE GAS ADD STATICCALL ISZERO PUSH2 0x222 JUMPI JUMP JUMPDEST PUSH1 0x40 DUP1 MLOAD PUSH32 0x2B2D445425DA8A00EFF117D35F7F7E9795C25AB24F2F5531761D3BB041A64293 DUP2 MSTORE PUSH32 0x2044A9180B7D9E43A4F25B8473C4ABEB3A3B00C6176ED24FA4F31FFDF5C968FE PUSH1 0x20 DUP3 ADD MSTORE DUP1 DUP3 ADD SWAP4 DUP5 MSTORE PUSH2 0x7CF NOT SWAP2 DUP2 PUSH1 0x60 DUP2 PUSH1 0x7 DUP7 GAS ADD STATICCALL ISZERO PUSH2 0x222 JUMPI PUSH1 0x6 PUSH1 0x80 SWAP3 PUSH1 0x40 SWAP6 DUP6 MLOAD SWAP1 MSTORE PUSH1 0x20 DUP6 ADD MLOAD PUSH1 0x60 DUP5 ADD MSTORE GAS ADD STATICCALL ISZERO PUSH2 0x222 JUMPI JUMP JUMPDEST PUSH1 0x40 DUP1 MLOAD PUSH32 0x29BB1C0135E8DF9F7B1E621BB670D60C5214BE87A589236AD98042B32E035851 DUP2 MSTORE PUSH32 0x1506018C2330EA5D18153010D028E2420E8B12A9834798181EDEDC522E3116CC PUSH1 0x20 DUP3 ADD MSTORE DUP1 DUP3 ADD SWAP4 DUP5 MSTORE PUSH2 0x7CF NOT SWAP2 DUP2 PUSH1 0x60 DUP2 PUSH1 0x7 DUP7 GAS ADD STATICCALL ISZERO PUSH2 0x222 JUMPI PUSH1 0x6 PUSH1 0x80 SWAP3 PUSH1 0x40 SWAP6 DUP6 MLOAD SWAP1 MSTORE PUSH1 0x20 DUP6 ADD MLOAD PUSH1 0x60 DUP5 ADD MSTORE GAS ADD STATICCALL ISZERO PUSH2 0x222 JUMPI JUMP JUMPDEST PUSH1 0x40 DUP1 MLOAD PUSH32 0x289DFEBA049C2EF5EA238401CC9A62C4792CE32E4381E93D570FAF24CDDE710B DUP2 MSTORE PUSH32 0x1D0F80725E9670239152273B0D0F40E4FDDA87874F5DEDC0E756D4F64AA7FD91 PUSH1 0x20 DUP3 ADD MSTORE DUP1 DUP3 ADD SWAP4 DUP5 MSTORE PUSH2 0x7CF NOT SWAP2 DUP2 PUSH1 0x60 DUP2 PUSH1 0x7 DUP7 GAS ADD STATICCALL ISZERO PUSH2 0x222 JUMPI PUSH1 0x6 PUSH1 0x80 SWAP3 PUSH1 0x40 SWAP6 DUP6 MLOAD SWAP1 MSTORE PUSH1 0x20 DUP6 ADD MLOAD PUSH1 0x60 DUP5 ADD MSTORE GAS ADD STATICCALL ISZERO PUSH2 0x222 JUMPI JUMP JUMPDEST PUSH1 0x40 DUP1 MLOAD PUSH32 0x1E26F06D7F69271BCD2823DBD200CEEA73D17ED2E4599737E264AAABAF493D35 DUP2 MSTORE PUSH32 0x1918A7A8A340A11B5A15B0A980E986646BB8668FA34054DCA1D9F7785C6A8DCB PUSH1 0x20 DUP3 ADD MSTORE DUP1 DUP3 ADD SWAP4 DUP5 MSTORE PUSH2 0x7CF NOT SWAP2 DUP2 PUSH1 0x60 DUP2 PUSH1 0x7 DUP7 GAS ADD STATICCALL ISZERO PUSH2 0x222 JUMPI PUSH1 0x6 PUSH1 0x80 SWAP3 PUSH1 0x40 SWAP6 DUP6 MLOAD SWAP1 MSTORE PUSH1 0x20 DUP6 ADD MLOAD PUSH1 0x60 DUP5 ADD MSTORE GAS ADD STATICCALL ISZERO PUSH2 0x222 JUMPI JUMP JUMPDEST PUSH1 0x40 DUP1 MLOAD PUSH32 0x109BF550188CE05B3BF44F709EEC8F89A5BA06804648A5ED2053F1E2270EA09 DUP2 MSTORE PUSH32 0x669B11E50B968F1A62F0314E20FBB93BF48177B74FFB0FA0B3E1B1992F55E31 PUSH1 0x20 DUP3 ADD MSTORE DUP1 DUP3 ADD SWAP4 DUP5 MSTORE PUSH2 0x7CF NOT SWAP2 DUP2 PUSH1 0x60 DUP2 PUSH1 0x7 DUP7 GAS ADD STATICCALL ISZERO PUSH2 0x222 JUMPI PUSH1 0x6 PUSH1 0x80 SWAP3 PUSH1 0x40 SWAP6 DUP6 MLOAD SWAP1 MSTORE PUSH1 0x20 DUP6 ADD MLOAD PUSH1 0x60 DUP5 ADD MSTORE GAS ADD STATICCALL ISZERO PUSH2 0x222 JUMPI JUMP JUMPDEST SWAP3 SWAP2 SWAP3 PUSH1 0x40 MLOAD PUSH2 0x380 DUP2 ADD PUSH1 0x40 MSTORE DUP4 CALLDATALOAD SWAP3 PUSH2 0x570 DUP5 PUSH2 0x1F9 JUMP JUMPDEST PUSH1 0x20 SWAP6 DUP7 SWAP5 DUP6 SWAP3 DUP4 DUP9 ADD CALLDATALOAD SWAP6 PUSH2 0x585 DUP8 PUSH2 0x1F9 JUMP JUMPDEST PUSH1 0x40 DUP10 ADD CALLDATALOAD SWAP9 PUSH2 0x594 DUP11 PUSH2 0x1F9 JUMP JUMPDEST PUSH1 0x60 DUP2 ADD CALLDATALOAD SWAP1 PUSH2 0x5A3 DUP3 PUSH2 0x1F9 JUMP JUMPDEST PUSH1 0x80 DUP2 ADD CALLDATALOAD SWAP1 PUSH2 0x5B2 DUP3 PUSH2 0x1F9 JUMP JUMPDEST PUSH1 0xA0 ADD CALLDATALOAD SWAP2 PUSH2 0x5C0 DUP4 PUSH2 0x1F9 JUMP JUMPDEST PUSH1 0x80 DUP10 ADD SWAP12 DUP13 SWAP11 PUSH32 0x2A2CC8A9A80951007ED48E6B5A779048EF55B99DC9287AD317061C4B8D6B0D4E DUP12 MSTORE DUP10 DUP12 ADD SWAP8 PUSH32 0x23485BFEF6BDD534459BF978B2EE80547C338246F9D6605F8A5A36B057AB5C37 DUP10 MSTORE PUSH2 0x61B SWAP1 DUP13 PUSH2 0x22C JUMP JUMPDEST PUSH2 0x625 SWAP1 DUP12 PUSH2 0x2B3 JUMP JUMPDEST PUSH2 0x62F SWAP1 DUP11 PUSH2 0x33A JUMP JUMPDEST PUSH2 0x639 SWAP1 DUP10 PUSH2 0x3C1 JUMP JUMPDEST PUSH2 0x643 SWAP1 DUP9 PUSH2 0x448 JUMP JUMPDEST PUSH2 0x64D SWAP1 DUP8 PUSH2 0x4CF JUMP JUMPDEST DUP1 CALLDATALOAD DUP8 MSTORE PUSH32 0x30644E72E131A029B85045B68181585D97816A916871CA8D3C208C16D87CFD47 SWAP1 DUP6 ADD CALLDATALOAD DUP2 SUB MOD PUSH1 0xA0 DUP7 ADD MSTORE DUP1 CALLDATALOAD PUSH1 0xC0 DUP7 ADD MSTORE DUP1 DUP5 ADD CALLDATALOAD PUSH1 0xE0 DUP7 ADD MSTORE PUSH1 0x40 DUP2 ADD CALLDATALOAD PUSH2 0x100 DUP7 ADD MSTORE PUSH1 0x60 ADD CALLDATALOAD PUSH2 0x120 DUP6 ADD MSTORE PUSH32 0x2A673B0214C0E7F80F30087D15A1C5763A239D9EBDC24E299965FB524DA88B64 PUSH2 0x140 DUP6 ADD MSTORE PUSH32 0x25DA87FDCF2CF0D5E5A62DFCB432ACBD68D4D343ACB856D0DFB30EFA9026CA55 PUSH2 0x160 DUP6 ADD MSTORE PUSH32 0x17C610C81CDB902CCF9DE9E7439CA65ADBCD3EF29DDAD4630C527DDF1A28B900 PUSH2 0x180 DUP6 ADD MSTORE PUSH32 0x2B9A49BB99B157AFA97E4825A94A5F36A9B4C38D609F6C09C878B125A5ADFF1 PUSH2 0x1A0 DUP6 ADD MSTORE PUSH32 0x1A6BB75944F5D0D28AAFFAF5B97A9CE651613774FB1B622616170D245114F5DD PUSH2 0x1C0 DUP6 ADD MSTORE PUSH32 0x3BD78CF32B2B2BCFE7C59E93C6B71F0E92551E7C3F25998C99820A293931436 PUSH2 0x1E0 DUP6 ADD MSTORE DUP4 MLOAD PUSH2 0x200 DUP6 ADD MSTORE MLOAD PUSH2 0x220 DUP5 ADD MSTORE PUSH32 0x198E9393920D483A7260BFB731FB5D25F1AA493335A9E71297E485B7AEF312C2 PUSH2 0x240 DUP5 ADD MSTORE PUSH32 0x1800DEEF121F1E76426A00665E5C4479674322D4F75EDADD46DEBD5CD992F6ED PUSH2 0x260 DUP5 ADD MSTORE PUSH32 0x90689D0585FF075EC9E99AD690C3395BC4B313370B38EF355ACDADCD122975B PUSH2 0x280 DUP5 ADD MSTORE PUSH32 0x12C85EA5DB8C6DEB4AAB71808DCB408FE3D1E7690C43D37B4CE6CC0166FA7DAA PUSH2 0x2A0 DUP5 ADD MSTORE DUP1 CALLDATALOAD PUSH2 0x2C0 DUP5 ADD MSTORE ADD CALLDATALOAD PUSH2 0x2E0 DUP3 ADD MSTORE PUSH32 0x1E9FEA48CFDE811CBF617CEBBD40B833DDE76E45782689A28C43290D9EC15486 PUSH2 0x300 DUP1 DUP4 ADD SWAP2 SWAP1 SWAP2 MSTORE PUSH32 0xE21C960AABFEFCA60C54F5FE7ED7647BE7FE2E91ECCB0D4765EA5F7597AA178 PUSH2 0x320 DUP4 ADD MSTORE PUSH32 0xE158D1D8CA264D3857917917DA2BA26C81FBD07E171F66E497BAAEF15B2F9F0 PUSH2 0x340 DUP4 ADD MSTORE PUSH32 0x111D1DB71B03617EBE683168DC3CDD307AF872DCEE6A40CDB2F0FB80F17C06D3 PUSH2 0x360 SWAP1 SWAP3 ADD SWAP2 SWAP1 SWAP2 MSTORE DUP2 PUSH2 0x7CF NOT GAS ADD PUSH1 0x8 SWAP1 STATICCALL SWAP1 MLOAD AND PUSH1 0x0 MSTORE PUSH1 0x0 RETURN INVALID LOG2 PUSH5 0x6970667358 0x22 SLT KECCAK256 LT DUP11 SLOAD 0xC8 0xAD XOR DUP11 0x24 PUSH11 0x81CAD7736B42F36B5BCF5D PUSH3 0x217687 SWAP12 0xDF 0xC 0xD9 0xC7 0xE 0xDB 0xE1 PUSH5 0x736F6C6343 STOP ADDMOD EQ STOP CALLER "},"methodIdentifiers":{"verifyProof(uint256[2],uint256[2][2],uint256[2],uint256[6])":"f398789b"}}}}}