{"src/HealthPolicy.sol":{"HealthPolicy":{"abi":[{"inputs":[{"internalType":"address","name":"_verifier","type":"address"}],"stateMutability":"nonpayable","type":"constructor"},{"inputs":[],"name":"InvalidProof","type":"error"},{"inputs":[],"name":"VerificationFailed","type":"error"},{"inputs":[{"internalType":"address","name":"user","type":"address"},{"internalType":"bytes","name":"proof","type":"bytes"},{"internalType":"uint256[]","name":"publicInputs","type":"uint256[]"}],"name":"isHealthy","outputs":[{"internalType":"bool","name":"","type":"bool"}],"stateMutability":"view","type":"function"},{"inputs":[],"name":"verifier","outputs":[{"internalType":"contract IVerifier","name":"","type":"address"}],"stateMutability":"view","type":"function"}],"evm":{"bytecode":{"linkReferences":{},"object":"60a0346100be57601f61036038819003918201601f19168301916001600160401b038311848410176100c3578084926020946040528339810103126100be57516001600160a01b038116908190036100be5780156100795760805260405161028690816100da823960805181818161013501526102210152f35b60405162461bcd60e51b815260206004820152601860248201527f496e76616c6964207665726966696572206164647265737300000000000000006044820152606490fd5b600080fd5b634e487b7160e01b600052604160045260246000fdfe608060408181526004918236101561001657600080fd5b600090813560e01c9081632b7ac3f31461020d5750634e8ee36e1461003a57600080fd5b346101cf5760603660031901126101cf576001600160a01b03908335828116036101cf5760249167ffffffffffffffff9083358281116102095736602382011215610209578087013583811161020557368682840101116102055760443584811161020157366023820112156102015780890135918583116101fd578260051b93368986850101116101f9579181601f9694928a8d9997958d80519b631e8e1e1360e01b8d528c01528260448c01520160648a0137886064828a010152861996879101168701916060888403018a89015280606484015260018060fb1b03106101f957608487846020969482968d84960185830137010301917f0000000000000000000000000000000000000000000000000000000000000000165afa9485156101ef578495610186575b505050505015610179576020905160018152f35b5163439cc0cd60e01b8152fd5b9091929394506020923d84116101e7575b601f8401168401918211848310176101d6575060209183918652810103126101d257519081151582036101cf57503880808080610165565b80fd5b5080fd5b634e487b7160e01b85526041875284fd5b3d9350610197565b86513d86823e3d90fd5b8780fd5b8680fd5b8580fd5b8480fd5b8380fd5b9050346101d257816003193601126101d2577f00000000000000000000000000000000000000000000000000000000000000006001600160a01b03168152602090f3fea2646970667358221220fa5903f6917ba59eb77dfd08663e8b8de908430e44d093a26cff1acdb4eae78264736f6c63430008140033","opcodes":"PUSH1 0xA0 CALLVALUE PUSH2 0xBE JUMPI PUSH1 0x1F PUSH2 0x360 CODESIZE DUP2 SWAP1 SUB SWAP2 DUP3 ADD PUSH1 0x1F NOT AND DUP4 ADD SWAP2 PUSH1 0x1 PUSH1 0x1 PUSH1 0x40 SHL SUB DUP4 GT DUP5 DUP5 LT OR PUSH2 0xC3 JUMPI DUP1 DUP5 SWAP3 PUSH1 0x20 SWAP5 PUSH1 0x40 MSTORE DUP4 CODECOPY DUP2 ADD SUB SLT PUSH2 0xBE JUMPI MLOAD PUSH1 0x1 PUSH1 0x1 PUSH1 0xA0 SHL SUB DUP2 AND SWAP1 DUP2 SWAP1 SUB PUSH2 0xBE JUMPI DUP1 ISZERO PUSH2 0x79 JUMPI PUSH1 0x80 MSTORE PUSH1 0x40 MLOAD PUSH2 0x286 SWAP1 DUP2 PUSH2 0xDA DUP3 CODECOPY PUSH1 0x80 MLOAD DUP2 DUP2 DUP2 PUSH2 0x135 ADD MSTORE PUSH2 0x221 ADD MSTORE RETURN JUMPDEST PUSH1 0x40 MLOAD PUSH3 0x461BCD PUSH1 0xE5 SHL DUP2 MSTORE PUSH1 0x20 PUSH1 0x4 DUP3 ADD MSTORE PUSH1 0x18 PUSH1 0x24 DUP3 ADD MSTORE PUSH32 0x496E76616C696420766572696669657220616464726573730000000000000000 PUSH1 0x44 DUP3 ADD MSTORE PUSH1 0x64 SWAP1 REVERT JUMPDEST PUSH1 0x0 DUP1 REVERT JUMPDEST PUSH4 0x4E487B71 PUSH1 0xE0 SHL PUSH1 0x0 MSTORE PUSH1 0x41 PUSH1 0x4 MSTORE PUSH1 0x24 PUSH1 0x0 REVERT INVALID PUSH1 0x80 PUSH1 0x40 DUP2 DUP2 MSTORE PUSH1 0x4 SWAP2 DUP3 CALLDATASIZE LT ISZERO PUSH2 0x16 JUMPI PUSH1 0x0 DUP1 REVERT JUMPDEST PUSH1 0x0 SWAP1 DUP2 CALLDATALOAD PUSH1 0xE0 SHR SWAP1 DUP2 PUSH4 0x2B7AC3F3 EQ PUSH2 0x20D JUMPI POP PUSH4 0x4E8EE36E EQ PUSH2 0x3A JUMPI PUSH1 0x0 DUP1 REVERT JUMPDEST CALLVALUE PUSH2 0x1CF JUMPI PUSH1 0x60 CALLDATASIZE PUSH1 0x3 NOT ADD SLT PUSH2 0x1CF JUMPI PUSH1 0x1 PUSH1 0x1 PUSH1 0xA0 SHL SUB SWAP1 DUP4 CALLDATALOAD DUP3 DUP2 AND SUB PUSH2 0x1CF JUMPI PUSH1 0x24 SWAP2 PUSH8 0xFFFFFFFFFFFFFFFF SWAP1 DUP4 CALLDATALOAD DUP3 DUP2 GT PUSH2 0x209 JUMPI CALLDATASIZE PUSH1 0x23 DUP3 ADD SLT ISZERO PUSH2 0x209 JUMPI DUP1 DUP8 ADD CALLDATALOAD DUP4 DUP2 GT PUSH2 0x205 JUMPI CALLDATASIZE DUP7 DUP3 DUP5 ADD ADD GT PUSH2 0x205 JUMPI PUSH1 0x44 CALLDATALOAD DUP5 DUP2 GT PUSH2 0x201 JUMPI CALLDATASIZE PUSH1 0x23 DUP3 ADD SLT ISZERO PUSH2 0x201 JUMPI DUP1 DUP10 ADD CALLDATALOAD SWAP2 DUP6 DUP4 GT PUSH2 0x1FD JUMPI DUP3 PUSH1 0x5 SHL SWAP4 CALLDATASIZE DUP10 DUP7 DUP6 ADD ADD GT PUSH2 0x1F9 JUMPI SWAP2 DUP2 PUSH1 0x1F SWAP7 SWAP5 SWAP3 DUP11 DUP14 SWAP10 SWAP8 SWAP6 DUP14 DUP1 MLOAD SWAP12 PUSH4 0x1E8E1E13 PUSH1 0xE0 SHL DUP14 MSTORE DUP13 ADD MSTORE DUP3 PUSH1 0x44 DUP13 ADD MSTORE ADD PUSH1 0x64 DUP11 ADD CALLDATACOPY DUP9 PUSH1 0x64 DUP3 DUP11 ADD ADD MSTORE DUP7 NOT SWAP7 DUP8 SWAP2 ADD AND DUP8 ADD SWAP2 PUSH1 0x60 DUP9 DUP5 SUB ADD DUP11 DUP10 ADD MSTORE DUP1 PUSH1 0x64 DUP5 ADD MSTORE PUSH1 0x1 DUP1 PUSH1 0xFB SHL SUB LT PUSH2 0x1F9 JUMPI PUSH1 0x84 DUP8 DUP5 PUSH1 0x20 SWAP7 SWAP5 DUP3 SWAP7 DUP14 DUP5 SWAP7 ADD DUP6 DUP4 ADD CALLDATACOPY ADD SUB ADD SWAP2 PUSH32 0x0 AND GAS STATICCALL SWAP5 DUP6 ISZERO PUSH2 0x1EF JUMPI DUP5 SWAP6 PUSH2 0x186 JUMPI JUMPDEST POP POP POP POP POP ISZERO PUSH2 0x179 JUMPI PUSH1 0x20 SWAP1 MLOAD PUSH1 0x1 DUP2 MSTORE RETURN JUMPDEST MLOAD PUSH4 0x439CC0CD PUSH1 0xE0 SHL DUP2 MSTORE REVERT JUMPDEST SWAP1 SWAP2 SWAP3 SWAP4 SWAP5 POP PUSH1 0x20 SWAP3 RETURNDATASIZE DUP5 GT PUSH2 0x1E7 JUMPI JUMPDEST PUSH1 0x1F DUP5 ADD AND DUP5 ADD SWAP2 DUP3 GT DUP5 DUP4 LT OR PUSH2 0x1D6 JUMPI POP PUSH1 0x20 SWAP2 DUP4 SWAP2 DUP7 MSTORE DUP2 ADD SUB SLT PUSH2 0x1D2 JUMPI MLOAD SWAP1 DUP2 ISZERO ISZERO DUP3 SUB PUSH2 0x1CF JUMPI POP CODESIZE DUP1 DUP1 DUP1 DUP1 PUSH2 0x165 JUMP JUMPDEST DUP1 REVERT JUMPDEST POP DUP1 REVERT JUMPDEST PUSH4 0x4E487B71 PUSH1 0xE0 SHL DUP6 MSTORE PUSH1 0x41 DUP8 MSTORE DUP5 REVERT JUMPDEST RETURNDATASIZE SWAP4 POP PUSH2 0x197 JUMP JUMPDEST DUP7 MLOAD RETURNDATASIZE DUP7 DUP3 RETURNDATACOPY RETURNDATASIZE SWAP1 REVERT JUMPDEST DUP8 DUP1 REVERT JUMPDEST DUP7 DUP1 REVERT JUMPDEST DUP6 DUP1 REVERT JUMPDEST DUP5 DUP1 REVERT JUMPDEST DUP4 DUP1 REVERT JUMPDEST SWAP1 POP CALLVALUE PUSH2 0x1D2 JUMPI DUP2 PUSH1 0x3 NOT CALLDATASIZE ADD SLT PUSH2 0x1D2 JUMPI PUSH32 0x0 PUSH1 0x1 PUSH1 0x1 PUSH1 0xA0 SHL SUB AND DUP2 MSTORE PUSH1 0x20 SWAP1 RETURN INVALID LOG2 PUSH5 0x6970667358 0x22 SLT KECCAK256 STATICCALL MSIZE SUB 0xF6 SWAP2 PUSH28 0xA59EB77DFD08663E8B8DE908430E44D093A26CFF1ACDB4EAE7826473 PUSH16 0x6C634300081400330000000000000000 "},"methodIdentifiers":{"isHealthy(address,bytes,uint256[])":"4e8ee36e","verifier()":"2b7ac3f3"}}}}}