{"src/HealthPolicy.sol":{"HealthPolicy":{"abi":[{"inputs":[{"internalType":"address","name":"_verifier","type":"address"}],"stateMutability":"nonpayable","type":"constructor"},{"inputs":[],"name":"InvalidProof","type":"error"},{"inputs":[],"name":"VerificationFailed","type":"error"},{"inputs":[{"internalType":"address","name":"user","type":"address"},{"internalType":"bytes","name":"proof","type":"bytes"},{"internalType":"uint256[]","name":"publicInputs","type":"uint256[]"}],"name":"isHealthy","outputs":[{"internalType":"bool","name":"","type":"bool"}],"stateMutability":"view","type":"function"},{"inputs":[],"name":"verifier","outputs":[{"internalType":"contract IVerifier","name":"","type":"address"}],"stateMutability":"view","type":"function"}],"evm":{"bytecode":{"linkReferences":{},"object":"60a0346100be57601f61035138819003918201601f19168301916001600160401b038311848410176100c3578084926020946040528339810103126100be57516001600160a01b038116908190036100be5780156100795760805260405161027790816100da8239608051818181610131015261020e0152f35b60405162461bcd60e51b815260206004820152601860248201527f496e76616c6964207665726966696572206164647265737300000000000000006044820152606490fd5b600080fd5b634e487b7160e01b600052604160045260246000fdfe608060408181526004908136101561001657600080fd5b600092833560e01c9081632b7ac3f3146101fa5750634e8ee36e1461003a57600080fd5b346101bb5760603660031901126101bb576001600160a01b038235818116036101f657602480359067ffffffffffffffff908183116101f257366023840112156101f25782860135938285116101ee57368286860101116101ee576044358381116101ea57366023820112156101ea5780880135918483116101e6578260051b368582850101116101e2578851631e8e1e1360e01b8152808b018a90526044810189905297601f978190870160648b01378b6064828b01015287199788910116880193606089860301868a015280606486015260018060fb1b03106101e257608488826020968296948984960185830137010301917f0000000000000000000000000000000000000000000000000000000000000000165afa9586156101d857879661016d575b60208787519015158152f35b909192939495506020933d85116101d0575b601f8501168501928311858410176101bf57505060209183918552810103126101bb575180151581036101bb5760209250903880808080610161565b8280fd5b634e487b7160e01b87526041905285fd5b3d945061017f565b85513d89823e3d90fd5b8a80fd5b8980fd5b8880fd5b8780fd5b8680fd5b8380fd5b84903461023d578160031936011261023d577f00000000000000000000000000000000000000000000000000000000000000006001600160a01b03168152602090f35b5080fdfea26469706673582212206e8fcd95c37237e421ee0acfbc097c13e2ef12ae0253abef1c35d8f0f56341b264736f6c63430008140033","opcodes":"PUSH1 0xA0 CALLVALUE PUSH2 0xBE JUMPI PUSH1 0x1F PUSH2 0x351 CODESIZE DUP2 SWAP1 SUB SWAP2 DUP3 ADD PUSH1 0x1F NOT AND DUP4 ADD SWAP2 PUSH1 0x1 PUSH1 0x1 PUSH1 0x40 SHL SUB DUP4 GT DUP5 DUP5 LT OR PUSH2 0xC3 JUMPI DUP1 DUP5 SWAP3 PUSH1 0x20 SWAP5 PUSH1 0x40 MSTORE DUP4 CODECOPY DUP2 ADD SUB SLT PUSH2 0xBE JUMPI MLOAD PUSH1 0x1 PUSH1 0x1 PUSH1 0xA0 SHL SUB DUP2 AND SWAP1 DUP2 SWAP1 SUB PUSH2 0xBE JUMPI DUP1 ISZERO PUSH2 0x79 JUMPI PUSH1 0x80 MSTORE PUSH1 0x40 MLOAD PUSH2 0x277 SWAP1 DUP2 PUSH2 0xDA DUP3 CODECOPY PUSH1 0x80 MLOAD DUP2 DUP2 DUP2 PUSH2 0x131 ADD MSTORE PUSH2 0x20E ADD MSTORE RETURN JUMPDEST PUSH1 0x40 MLOAD PUSH3 0x461BCD PUSH1 0xE5 SHL DUP2 MSTORE PUSH1 0x20 PUSH1 0x4 DUP3 ADD MSTORE PUSH1 0x18 PUSH1 0x24 DUP3 ADD MSTORE PUSH32 0x496E76616C696420766572696669657220616464726573730000000000000000 PUSH1 0x44 DUP3 ADD MSTORE PUSH1 0x64 SWAP1 REVERT JUMPDEST PUSH1 0x0 DUP1 REVERT JUMPDEST PUSH4 0x4E487B71 PUSH1 0xE0 SHL PUSH1 0x0 MSTORE PUSH1 0x41 PUSH1 0x4 MSTORE PUSH1 0x24 PUSH1 0x0 REVERT INVALID PUSH1 0x80 PUSH1 0x40 DUP2 DUP2 MSTORE PUSH1 0x4 SWAP1 DUP2 CALLDATASIZE LT ISZERO PUSH2 0x16 JUMPI PUSH1 0x0 DUP1 REVERT JUMPDEST PUSH1 0x0 SWAP3 DUP4 CALLDATALOAD PUSH1 0xE0 SHR SWAP1 DUP2 PUSH4 0x2B7AC3F3 EQ PUSH2 0x1FA JUMPI POP PUSH4 0x4E8EE36E EQ PUSH2 0x3A JUMPI PUSH1 0x0 DUP1 REVERT JUMPDEST CALLVALUE PUSH2 0x1BB JUMPI PUSH1 0x60 CALLDATASIZE PUSH1 0x3 NOT ADD SLT PUSH2 0x1BB JUMPI PUSH1 0x1 PUSH1 0x1 PUSH1 0xA0 SHL SUB DUP3 CALLDATALOAD DUP2 DUP2 AND SUB PUSH2 0x1F6 JUMPI PUSH1 0x24 DUP1 CALLDATALOAD SWAP1 PUSH8 0xFFFFFFFFFFFFFFFF SWAP1 DUP2 DUP4 GT PUSH2 0x1F2 JUMPI CALLDATASIZE PUSH1 0x23 DUP5 ADD SLT ISZERO PUSH2 0x1F2 JUMPI DUP3 DUP7 ADD CALLDATALOAD SWAP4 DUP3 DUP6 GT PUSH2 0x1EE JUMPI CALLDATASIZE DUP3 DUP7 DUP7 ADD ADD GT PUSH2 0x1EE JUMPI PUSH1 0x44 CALLDATALOAD DUP4 DUP2 GT PUSH2 0x1EA JUMPI CALLDATASIZE PUSH1 0x23 DUP3 ADD SLT ISZERO PUSH2 0x1EA JUMPI DUP1 DUP9 ADD CALLDATALOAD SWAP2 DUP5 DUP4 GT PUSH2 0x1E6 JUMPI DUP3 PUSH1 0x5 SHL CALLDATASIZE DUP6 DUP3 DUP6 ADD ADD GT PUSH2 0x1E2 JUMPI DUP9 MLOAD PUSH4 0x1E8E1E13 PUSH1 0xE0 SHL DUP2 MSTORE DUP1 DUP12 ADD DUP11 SWAP1 MSTORE PUSH1 0x44 DUP2 ADD DUP10 SWAP1 MSTORE SWAP8 PUSH1 0x1F SWAP8 DUP2 SWAP1 DUP8 ADD PUSH1 0x64 DUP12 ADD CALLDATACOPY DUP12 PUSH1 0x64 DUP3 DUP12 ADD ADD MSTORE DUP8 NOT SWAP8 DUP9 SWAP2 ADD AND DUP9 ADD SWAP4 PUSH1 0x60 DUP10 DUP7 SUB ADD DUP7 DUP11 ADD MSTORE DUP1 PUSH1 0x64 DUP7 ADD MSTORE PUSH1 0x1 DUP1 PUSH1 0xFB SHL SUB LT PUSH2 0x1E2 JUMPI PUSH1 0x84 DUP9 DUP3 PUSH1 0x20 SWAP7 DUP3 SWAP7 SWAP5 DUP10 DUP5 SWAP7 ADD DUP6 DUP4 ADD CALLDATACOPY ADD SUB ADD SWAP2 PUSH32 0x0 AND GAS STATICCALL SWAP6 DUP7 ISZERO PUSH2 0x1D8 JUMPI DUP8 SWAP7 PUSH2 0x16D JUMPI JUMPDEST PUSH1 0x20 DUP8 DUP8 MLOAD SWAP1 ISZERO ISZERO DUP2 MSTORE RETURN JUMPDEST SWAP1 SWAP2 SWAP3 SWAP4 SWAP5 SWAP6 POP PUSH1 0x20 SWAP4 RETURNDATASIZE DUP6 GT PUSH2 0x1D0 JUMPI JUMPDEST PUSH1 0x1F DUP6 ADD AND DUP6 ADD SWAP3 DUP4 GT DUP6 DUP5 LT OR PUSH2 0x1BF JUMPI POP POP PUSH1 0x20 SWAP2 DUP4 SWAP2 DUP6 MSTORE DUP2 ADD SUB SLT PUSH2 0x1BB JUMPI MLOAD DUP1 ISZERO ISZERO DUP2 SUB PUSH2 0x1BB JUMPI PUSH1 0x20 SWAP3 POP SWAP1 CODESIZE DUP1 DUP1 DUP1 DUP1 PUSH2 0x161 JUMP JUMPDEST DUP3 DUP1 REVERT JUMPDEST PUSH4 0x4E487B71 PUSH1 0xE0 SHL DUP8 MSTORE PUSH1 0x41 SWAP1 MSTORE DUP6 REVERT JUMPDEST RETURNDATASIZE SWAP5 POP PUSH2 0x17F JUMP JUMPDEST DUP6 MLOAD RETURNDATASIZE DUP10 DUP3 RETURNDATACOPY RETURNDATASIZE SWAP1 REVERT JUMPDEST DUP11 DUP1 REVERT JUMPDEST DUP10 DUP1 REVERT JUMPDEST DUP9 DUP1 REVERT JUMPDEST DUP8 DUP1 REVERT JUMPDEST DUP7 DUP1 REVERT JUMPDEST DUP4 DUP1 REVERT JUMPDEST DUP5 SWAP1 CALLVALUE PUSH2 0x23D JUMPI DUP2 PUSH1 0x3 NOT CALLDATASIZE ADD SLT PUSH2 0x23D JUMPI PUSH32 0x0 PUSH1 0x1 PUSH1 0x1 PUSH1 0xA0 SHL SUB AND DUP2 MSTORE PUSH1 0x20 SWAP1 RETURN JUMPDEST POP DUP1 REVERT INVALID LOG2 PUSH5 0x6970667358 0x22 SLT KECCAK256 PUSH15 0x8FCD95C37237E421EE0ACFBC097C13 0xE2 0xEF SLT 0xAE MUL MSTORE8 0xAB 0xEF SHR CALLDATALOAD 0xD8 CREATE CREATE2 PUSH4 0x41B26473 PUSH16 0x6C634300081400330000000000000000 "},"methodIdentifiers":{"isHealthy(address,bytes,uint256[])":"4e8ee36e","verifier()":"2b7ac3f3"}}}}}