{
  "_format": "hh-sol-artifact-1",
  "contractName": "SampleProtocol",
  "sourceName": "src/SampleProtocol.sol",
  "abi": [
    {
      "inputs": [
        {
          "internalType": "address",
          "name": "_policy",
          "type": "address"
        }
      ],
      "stateMutability": "nonpayable",
      "type": "constructor"
    },
    {
      "inputs": [],
      "name": "HealthCheckFailed",
      "type": "error"
    },
    {
      "anonymous": false,
      "inputs": [
        {
          "indexed": true,
          "internalType": "address",
          "name": "user",
          "type": "address"
        },
        {
          "indexed": false,
          "internalType": "bool",
          "name": "healthy",
          "type": "bool"
        }
      ],
      "name": "HealthChecked",
      "type": "event"
    },
    {
      "inputs": [
        {
          "internalType": "bytes",
          "name": "proof",
          "type": "bytes"
        },
        {
          "internalType": "uint256[]",
          "name": "publicInputs",
          "type": "uint256[]"
        }
      ],
      "name": "checkHealth",
      "outputs": [],
      "stateMutability": "nonpayable",
      "type": "function"
    },
    {
      "inputs": [],
      "name": "healthPolicy",
      "outputs": [
        {
          "internalType": "contract IHealthPolicy",
          "name": "",
          "type": "address"
        }
      ],
      "stateMutability": "view",
      "type": "function"
    }
  ],
  "bytecode": "0x60a0346100be57601f61037938819003918201601f19168301916001600160401b038311848410176100c3578084926020946040528339810103126100be57516001600160a01b038116908190036100be5780156100795760805260405161029f90816100da823960805181818161011c01526102360152f35b60405162461bcd60e51b815260206004820152601660248201527f496e76616c696420706f6c6963792061646472657373000000000000000000006044820152606490fd5b600080fd5b634e487b7160e01b600052604160045260246000fdfe6080604081815260048036101561001557600080fd5b600092833560e01c908163666dfd8c14610222575063744eb3811461003957600080fd5b3461021e578160031936011261021e5767ffffffffffffffff813581811161021a573660238201121561021a5780830135828111610216576024923684838501011161021257833581811161020e573660238201121561020e578086013582811161020a578060051b90368783850101116102065784601f95888b519863274771b760e11b8a52338c8b01526060828b01528260648b01520160848901378a6084828901015285199586910116860190608087830301604488015280608483015260018060fb1b031061020657858260a49282948a6020970185830137010301817f00000000000000000000000000000000000000000000000000000000000000006001600160a01b03165afa9384156101fc57879461019a575b505050501561018c575051600181527f59f72b88775ec111625b740c2b38d8f6e163e79ce4fc1896f22c8337129b051e60203392a280f35b905163c196dcf360e01b8152fd5b90919293506020923d84116101f4575b601f8401168401918211848310176101e3575060209183918652810103126101df575180151581036101df5738808080610154565b8380fd5b634e487b7160e01b87526041855286fd5b3d93506101aa565b86513d89823e3d90fd5b8980fd5b8880fd5b8780fd5b8680fd5b8580fd5b8480fd5b8280fd5b8490346102655781600319360112610265577f00000000000000000000000000000000000000000000000000000000000000006001600160a01b03168152602090f35b5080fdfea26469706673582212205e639432d8804169902ba69777b9c61440c48d6313e60d284592f14a9cdec1df64736f6c63430008140033",
  "linkReferences": {},
  "deployedLinkReferences": {}
}