{
  "_format": "hh-sol-artifact-1",
  "contractName": "Verifier",
  "sourceName": "src/Verifier.sol",
  "abi": [
    {
      "inputs": [
        {
          "internalType": "uint256[2]",
          "name": "_pA",
          "type": "uint256[2]"
        },
        {
          "internalType": "uint256[2][2]",
          "name": "_pB",
          "type": "uint256[2][2]"
        },
        {
          "internalType": "uint256[2]",
          "name": "_pC",
          "type": "uint256[2]"
        },
        {
          "internalType": "uint256[6]",
          "name": "_pubSignals",
          "type": "uint256[6]"
        }
      ],
      "name": "verifyProof",
      "outputs": [
        {
          "internalType": "bool",
          "name": "",
          "type": "bool"
        }
      ],
      "stateMutability": "view",
      "type": "function"
    }
  ],
  "bytecode": "0x608080604052346100165761093f908161001c8239f35b600080fdfe604060808152600436101561001357600080fd5b6000803560e01c63f398789b1461002957600080fd5b346100a2576101c03660031901126100a257610044366100e4565b9136606312156100a5576100566100bf565b918260c4913683116100a257506044905b82821061008957858561007936610126565b90610083366101a4565b92610556565b602084916100973685610164565b815201910190610067565b80fd5b5080fd5b634e487b7160e01b600052604160045260246000fd5b604051906040820182811067ffffffffffffffff8211176100df57604052565b6100a9565b8060231215610121576100f56100bf565b90816044918211610121576004905b8282106101115750505090565b8135815260209182019101610104565b600080fd5b8060e31215610121576101376100bf565b90816101049182116101215760c4905b8282106101545750505090565b8135815260209182019101610147565b9080601f83011215610121576101786100bf565b80926040810192831161012157905b8282106101945750505090565b8135815260209182019101610187565b806101231215610121576040519060c0820182811067ffffffffffffffff8211176100df57604052816101c491821161012157610104905b8282106101e95750505090565b81358152602091820191016101dc565b7f30644e72e131a029b85045b68181585d2833e84879b9709143e1f593f0000001111561022257565b6000805260206000f35b604080517f145f8975b228da91540616c455102cf69c0e683a9af3be715d34eb1af8ffe15881527f0ab74e079411bdf156eda1b356c7372bc91ae56b3f2db45988a7f867c9a664a160208201528082019384526107cf1991816060816007865a01fa1561022257600660809260409585519052602085015160608401525a01fa1561022257565b604080517f056114eb0cb90a007cbb19184436654728ca232ea2fd81e97ec467e074b4f92e81527f15476b567ef2ef7591f32a6fbc8539b651bc83ea338a913f7cda67e70e91cd8b60208201528082019384526107cf1991816060816007865a01fa1561022257600660809260409585519052602085015160608401525a01fa1561022257565b604080517f0513b7f94a7cd6d3a04d059488af7590bbb22dcc26b2d44f101158a414ea296281527f2cb8b22e035cb3dd4f7718a27d482377ad0bdf183ddea74c02be1d9b88296b4760208201528082019384526107cf1991816060816007865a01fa1561022257600660809260409585519052602085015160608401525a01fa1561022257565b604080517f1dc1ffe7a8638849b4aec0bdf951355929b7025595f4abb988775f3c865b814a81527f26c8e0271b90c4c0ce12b856914f55e3a79aa586e2dd2a6c070af25532ce6e5260208201528082019384526107cf1991816060816007865a01fa1561022257600660809260409585519052602085015160608401525a01fa1561022257565b604080517f17a14e9e45e246b40ab245bd234a526c02c0f98da26330583f6077dc960a408081527f1506ecc3c2aa008c9b1808f70108c3688fe148fad1d1ba4d905ae79edf635f8c60208201528082019384526107cf1991816060816007865a01fa1561022257600660809260409585519052602085015160608401525a01fa1561022257565b604080517f2e09b7a96090c782817c43525065c724e85b1769235acba4493dc6ad3ec5b36781527f0d9dd7842eded2385f29178aeb1fb731c4a3209a17b077a3c75fa331d1c22e1760208201528082019384526107cf1991816060816007865a01fa1561022257600660809260409585519052602085015160608401525a01fa1561022257565b9192906040516103808101604052825161056f906101f9565b602080958482809601948551610584906101f9565b60408201978851610594906101f9565b6060830180516105a3906101f9565b6080840180516105b2906101f9565b60a085019182516105c2906101f9565b608089019b8c9a7f2914e15da0fbe53d81e1f18198cd6f354eb7290fb6cb702dbce51750dcfd73138b52898b01977f0dede65eb8786c41ba4569f667e16d18c62eb82568ce36fdce52d5ccd170255d89525161061e908c61022c565b51610629908b6102b3565b51610634908a61033a565b5161063f90896103c1565b5161064a9088610448565b5161065590876104cf565b805187528401517f30644e72e131a029b85045b68181585d97816a916871ca8d3c208c16d87cfd479081030660a0860152805160c08601528084015160e08601526040810151610100860152606001516101208501527f2a673b0214c0e7f80f30087d15a1c5763a239d9ebdc24e299965fb524da88b646101408501527f25da87fdcf2cf0d5e5a62dfcb432acbd68d4d343acb856d0dfb30efa9026ca556101608501527f17c610c81cdb902ccf9de9e7439ca65adbcd3ef29ddad4630c527ddf1a28b9006101808501527f02b9a49bb99b157afa97e4825a94a5f36a9b4c38d609f6c09c878b125a5adff16101a08501527f1a6bb75944f5d0d28aaffaf5b97a9ce651613774fb1b622616170d245114f5dd6101c08501527f03bd78cf32b2b2bcfe7c59e93c6b71f0e92551e7c3f25998c99820a2939314366101e08501528351610200850152516102208401527f198e9393920d483a7260bfb731fb5d25f1aa493335a9e71297e485b7aef312c26102408401527f1800deef121f1e76426a00665e5c4479674322d4f75edadd46debd5cd992f6ed6102608401527f090689d0585ff075ec9e99ad690c3395bc4b313370b38ef355acdadcd122975b6102808401527f12c85ea5db8c6deb4aab71808dcb408fe3d1e7690c43d37b4ce6cc0166fa7daa6102a084015280516102c084015201516102e08201527f09a495ff5372cb65728ad7e941d2996dc898922aafa7e0351df247e357fdf984610300808301919091527f20db087e539ca727bc66dd87ae07d4a7ce4bfb901d42d838f098f0693b3ac4176103208301527f2a4071092eef22b121cfa9d6ec5ce3428839cdcfe5f24fa51950939f1812c7116103408301527f16f456f5491611a553207ee9f26739aee390295a262b6ab4f810c50bfbdcb58361036090920191909152816107cf195a01600890fa9051166000526000f3fea26469706673582212206fddf3ab05c28554a69618c378e2c7ce4ff4915eed0fcbd3c596944b6a97509f64736f6c63430008140033",
  "linkReferences": {},
  "deployedLinkReferences": {}
}