{
  "_format": "hh-sol-artifact-1",
  "contractName": "PlightVerifier",
  "sourceName": "src/PlightVerifier.sol",
  "abi": [
    {
      "inputs": [
        {
          "internalType": "bytes",
          "name": "proof",
          "type": "bytes"
        },
        {
          "internalType": "uint256[]",
          "name": "publicSignals",
          "type": "uint256[]"
        }
      ],
      "name": "verifyProof",
      "outputs": [
        {
          "internalType": "bool",
          "name": "",
          "type": "bool"
        }
      ],
      "stateMutability": "view",
      "type": "function"
    },
    {
      "inputs": [
        {
          "internalType": "uint256[2]",
          "name": "_pA",
          "type": "uint256[2]"
        },
        {
          "internalType": "uint256[2][2]",
          "name": "_pB",
          "type": "uint256[2][2]"
        },
        {
          "internalType": "uint256[2]",
          "name": "_pC",
          "type": "uint256[2]"
        },
        {
          "internalType": "uint256[6]",
          "name": "_pubSignals",
          "type": "uint256[6]"
        }
      ],
      "name": "verifyProof",
      "outputs": [
        {
          "internalType": "bool",
          "name": "",
          "type": "bool"
        }
      ],
      "stateMutability": "view",
      "type": "function"
    }
  ],
  "bytecode": "0x6080806040523461001657610c18908161001c8239f35b600080fdfe6080604052600436101561001257600080fd5b6000803560e01c9081631e8e1e131461003a575063f398789b1461003557600080fd5b610216565b346100c15760403660031901126100c15760043567ffffffffffffffff918282116100c157366023830112156100c1578160040135908382116100c15736602483850101116100c157602435908482116100c157366023830112156100c15781600401359485116100c1573660248660051b840101116100c1575060248091019201610415565b80fd5b634e487b7160e01b600052604160045260246000fd5b604051906040820182811067ffffffffffffffff8211176100fa57604052565b6100c4565b6040519060c0820182811067ffffffffffffffff8211176100fa57604052565b906101286100da565b91826044918211610153576004905b82821061014357505050565b8135815260209182019101610137565b600080fd5b8060e31215610153576101696100da565b90816101049182116101535760c4905b8282106101865750505090565b8135815260209182019101610179565b9080601f83011215610153576101aa6100da565b80926040810192831161015357905b8282106101c65750505090565b81358152602091820191016101b9565b806101231215610153576101e86100ff565b90816101c491821161015357610104905b8282106102065750505090565b81358152602091820191016101f9565b34610153576101c03660031901126101535736602312156101535761023a3661011f565b36606312156101535761024b6100da565b60c481368211610153576044905b82821061027c5750505061026c36610158565b90610276366101d6565b9261082f565b602060409161028b3685610196565b815201910190610259565b1561029d57565b60405162461bcd60e51b8152602060048201526014602482015273092dcecc2d8d2c840e0e4dedecc40d8cadccee8d60631b6044820152606490fd5b156102e057565b60405162461bcd60e51b815260206004820152601d60248201527f496e76616c6964207075626c6963207369676e616c73206c656e6774680000006044820152606490fd5b61032d6100da565b906040368337565b61033d6100ff565b9060c0368337565b61034d6100da565b9060005b60409081811015610375576020916103676100da565b903682378185015201610351565b5050565b9190826101009103126101535781359160208101359160408201359160608101359160808201359160a08101359160e060c083013592013590565b634e487b7160e01b600052603260045260246000fd5b60001981146103d95760010190565b634e487b7160e01b600052601160045260246000fd5b91908110156103ff5760051b0190565b6103b4565b9060068110156103ff5760051b0190565b9190926104256101008514610296565b60066104328183146102d9565b61043a610325565b91610443610345565b93610492610464610452610325565b9761045b610335565b99810190610379565b9794919590968c9493945260208c01528b51526104828b5160200190565b5260208a01908151525160200190565b528752602087015260005b8381106104ad575050505061082f565b806104bc6104cd9285856103ef565b356104c7828b610404565b526103ca565b61049d565b7f30644e72e131a029b85045b68181585d2833e84879b9709143e1f593f000000111156104fb57565b6000805260206000f35b604080517f145f8975b228da91540616c455102cf69c0e683a9af3be715d34eb1af8ffe15881527f0ab74e079411bdf156eda1b356c7372bc91ae56b3f2db45988a7f867c9a664a160208201528082019384526107cf1991816060816007865a01fa156104fb57600660809260409585519052602085015160608401525a01fa156104fb57565b604080517f056114eb0cb90a007cbb19184436654728ca232ea2fd81e97ec467e074b4f92e81527f15476b567ef2ef7591f32a6fbc8539b651bc83ea338a913f7cda67e70e91cd8b60208201528082019384526107cf1991816060816007865a01fa156104fb57600660809260409585519052602085015160608401525a01fa156104fb57565b604080517f0513b7f94a7cd6d3a04d059488af7590bbb22dcc26b2d44f101158a414ea296281527f2cb8b22e035cb3dd4f7718a27d482377ad0bdf183ddea74c02be1d9b88296b4760208201528082019384526107cf1991816060816007865a01fa156104fb57600660809260409585519052602085015160608401525a01fa156104fb57565b604080517f1dc1ffe7a8638849b4aec0bdf951355929b7025595f4abb988775f3c865b814a81527f26c8e0271b90c4c0ce12b856914f55e3a79aa586e2dd2a6c070af25532ce6e5260208201528082019384526107cf1991816060816007865a01fa156104fb57600660809260409585519052602085015160608401525a01fa156104fb57565b604080517f17a14e9e45e246b40ab245bd234a526c02c0f98da26330583f6077dc960a408081527f1506ecc3c2aa008c9b1808f70108c3688fe148fad1d1ba4d905ae79edf635f8c60208201528082019384526107cf1991816060816007865a01fa156104fb57600660809260409585519052602085015160608401525a01fa156104fb57565b604080517f2e09b7a96090c782817c43525065c724e85b1769235acba4493dc6ad3ec5b36781527f0d9dd7842eded2385f29178aeb1fb731c4a3209a17b077a3c75fa331d1c22e1760208201528082019384526107cf1991816060816007865a01fa156104fb57600660809260409585519052602085015160608401525a01fa156104fb57565b91929060405161038081016040528251610848906104d2565b60208095848280960194855161085d906104d2565b6040820197885161086d906104d2565b60608301805161087c906104d2565b60808401805161088b906104d2565b60a0850191825161089b906104d2565b608089019b8c9a7f2914e15da0fbe53d81e1f18198cd6f354eb7290fb6cb702dbce51750dcfd73138b52898b01977f0dede65eb8786c41ba4569f667e16d18c62eb82568ce36fdce52d5ccd170255d8952516108f7908c610505565b51610902908b61058c565b5161090d908a610613565b51610918908961069a565b516109239088610721565b5161092e90876107a8565b805187528401517f30644e72e131a029b85045b68181585d97816a916871ca8d3c208c16d87cfd479081030660a0860152805160c08601528084015160e08601526040810151610100860152606001516101208501527f2a673b0214c0e7f80f30087d15a1c5763a239d9ebdc24e299965fb524da88b646101408501527f25da87fdcf2cf0d5e5a62dfcb432acbd68d4d343acb856d0dfb30efa9026ca556101608501527f17c610c81cdb902ccf9de9e7439ca65adbcd3ef29ddad4630c527ddf1a28b9006101808501527f02b9a49bb99b157afa97e4825a94a5f36a9b4c38d609f6c09c878b125a5adff16101a08501527f1a6bb75944f5d0d28aaffaf5b97a9ce651613774fb1b622616170d245114f5dd6101c08501527f03bd78cf32b2b2bcfe7c59e93c6b71f0e92551e7c3f25998c99820a2939314366101e08501528351610200850152516102208401527f198e9393920d483a7260bfb731fb5d25f1aa493335a9e71297e485b7aef312c26102408401527f1800deef121f1e76426a00665e5c4479674322d4f75edadd46debd5cd992f6ed6102608401527f090689d0585ff075ec9e99ad690c3395bc4b313370b38ef355acdadcd122975b6102808401527f12c85ea5db8c6deb4aab71808dcb408fe3d1e7690c43d37b4ce6cc0166fa7daa6102a084015280516102c084015201516102e08201527f09a495ff5372cb65728ad7e941d2996dc898922aafa7e0351df247e357fdf984610300808301919091527f20db087e539ca727bc66dd87ae07d4a7ce4bfb901d42d838f098f0693b3ac4176103208301527f2a4071092eef22b121cfa9d6ec5ce3428839cdcfe5f24fa51950939f1812c7116103408301527f16f456f5491611a553207ee9f26739aee390295a262b6ab4f810c50bfbdcb58361036090920191909152816107cf195a01600890fa9051166000526000f3fea2646970667358221220a845e1608489fef0194f4812f563b34922335f2e866afc8118649ea6b730877664736f6c63430008140033",
  "linkReferences": {},
  "deployedLinkReferences": {}
}