{
  "_format": "hh-sol-artifact-1",
  "contractName": "HealthPolicy",
  "sourceName": "src/HealthPolicy.sol",
  "abi": [
    {
      "inputs": [
        {
          "internalType": "address",
          "name": "_verifier",
          "type": "address"
        }
      ],
      "stateMutability": "nonpayable",
      "type": "constructor"
    },
    {
      "inputs": [],
      "name": "InvalidProof",
      "type": "error"
    },
    {
      "inputs": [],
      "name": "VerificationFailed",
      "type": "error"
    },
    {
      "inputs": [
        {
          "internalType": "address",
          "name": "user",
          "type": "address"
        },
        {
          "internalType": "bytes",
          "name": "proof",
          "type": "bytes"
        },
        {
          "internalType": "uint256[]",
          "name": "publicInputs",
          "type": "uint256[]"
        }
      ],
      "name": "isHealthy",
      "outputs": [
        {
          "internalType": "bool",
          "name": "",
          "type": "bool"
        }
      ],
      "stateMutability": "view",
      "type": "function"
    },
    {
      "inputs": [],
      "name": "verifier",
      "outputs": [
        {
          "internalType": "contract IVerifier",
          "name": "",
          "type": "address"
        }
      ],
      "stateMutability": "view",
      "type": "function"
    }
  ],
  "bytecode": "0x60a0346100be57601f61036038819003918201601f19168301916001600160401b038311848410176100c3578084926020946040528339810103126100be57516001600160a01b038116908190036100be5780156100795760805260405161028690816100da823960805181818161013501526102210152f35b60405162461bcd60e51b815260206004820152601860248201527f496e76616c6964207665726966696572206164647265737300000000000000006044820152606490fd5b600080fd5b634e487b7160e01b600052604160045260246000fdfe608060408181526004918236101561001657600080fd5b600090813560e01c9081632b7ac3f31461020d5750634e8ee36e1461003a57600080fd5b346101cf5760603660031901126101cf576001600160a01b03908335828116036101cf5760249167ffffffffffffffff9083358281116102095736602382011215610209578087013583811161020557368682840101116102055760443584811161020157366023820112156102015780890135918583116101fd578260051b93368986850101116101f9579181601f9694928a8d9997958d80519b631e8e1e1360e01b8d528c01528260448c01520160648a0137886064828a010152861996879101168701916060888403018a89015280606484015260018060fb1b03106101f957608487846020969482968d84960185830137010301917f0000000000000000000000000000000000000000000000000000000000000000165afa9485156101ef578495610186575b505050505015610179576020905160018152f35b5163439cc0cd60e01b8152fd5b9091929394506020923d84116101e7575b601f8401168401918211848310176101d6575060209183918652810103126101d257519081151582036101cf57503880808080610165565b80fd5b5080fd5b634e487b7160e01b85526041875284fd5b3d9350610197565b86513d86823e3d90fd5b8780fd5b8680fd5b8580fd5b8480fd5b8380fd5b9050346101d257816003193601126101d2577f00000000000000000000000000000000000000000000000000000000000000006001600160a01b03168152602090f3fea26469706673582212203357fc2036eb594faae98482bf5d01d3f9b246131a10efce7789e099bc0b7b4b64736f6c63430008140033",
  "linkReferences": {},
  "deployedLinkReferences": {}
}